{
  "address": "0xCE6050B2aF7F615EA7A869d71F98397AE123b940",
  "abi": [
    {
      "inputs": [],
      "payable": false,
      "stateMutability": "nonpayable",
      "type": "constructor"
    },
    {
      "anonymous": false,
      "inputs": [
        {
          "indexed": false,
          "internalType": "uint256",
          "name": "cashPrior",
          "type": "uint256"
        },
        {
          "indexed": false,
          "internalType": "uint256",
          "name": "interestAccumulated",
          "type": "uint256"
        },
        {
          "indexed": false,
          "internalType": "uint256",
          "name": "borrowIndex",
          "type": "uint256"
        },
        {
          "indexed": false,
          "internalType": "uint256",
          "name": "totalBorrows",
          "type": "uint256"
        }
      ],
      "name": "AccrueInterest",
      "type": "event"
    },
    {
      "anonymous": false,
      "inputs": [
        {
          "indexed": true,
          "internalType": "address",
          "name": "owner",
          "type": "address"
        },
        {
          "indexed": true,
          "internalType": "address",
          "name": "spender",
          "type": "address"
        },
        {
          "indexed": false,
          "internalType": "uint256",
          "name": "amount",
          "type": "uint256"
        }
      ],
      "name": "Approval",
      "type": "event"
    },
    {
      "anonymous": false,
      "inputs": [
        {
          "indexed": false,
          "internalType": "address",
          "name": "borrower",
          "type": "address"
        },
        {
          "indexed": false,
          "internalType": "uint256",
          "name": "borrowAmount",
          "type": "uint256"
        },
        {
          "indexed": false,
          "internalType": "uint256",
          "name": "accountBorrows",
          "type": "uint256"
        },
        {
          "indexed": false,
          "internalType": "uint256",
          "name": "totalBorrows",
          "type": "uint256"
        }
      ],
      "name": "Borrow",
      "type": "event"
    },
    {
      "anonymous": false,
      "inputs": [
        {
          "indexed": false,
          "internalType": "uint256",
          "name": "error",
          "type": "uint256"
        },
        {
          "indexed": false,
          "internalType": "uint256",
          "name": "info",
          "type": "uint256"
        },
        {
          "indexed": false,
          "internalType": "uint256",
          "name": "detail",
          "type": "uint256"
        }
      ],
      "name": "Failure",
      "type": "event"
    },
    {
      "anonymous": false,
      "inputs": [
        {
          "indexed": false,
          "internalType": "address",
          "name": "liquidator",
          "type": "address"
        },
        {
          "indexed": false,
          "internalType": "address",
          "name": "borrower",
          "type": "address"
        },
        {
          "indexed": false,
          "internalType": "uint256",
          "name": "repayAmount",
          "type": "uint256"
        },
        {
          "indexed": false,
          "internalType": "address",
          "name": "cTokenCollateral",
          "type": "address"
        },
        {
          "indexed": false,
          "internalType": "uint256",
          "name": "seizeTokens",
          "type": "uint256"
        }
      ],
      "name": "LiquidateBorrow",
      "type": "event"
    },
    {
      "anonymous": false,
      "inputs": [
        {
          "indexed": false,
          "internalType": "address",
          "name": "minter",
          "type": "address"
        },
        {
          "indexed": false,
          "internalType": "uint256",
          "name": "mintAmount",
          "type": "uint256"
        },
        {
          "indexed": false,
          "internalType": "uint256",
          "name": "mintTokens",
          "type": "uint256"
        }
      ],
      "name": "Mint",
      "type": "event"
    },
    {
      "anonymous": false,
      "inputs": [
        {
          "indexed": false,
          "internalType": "address",
          "name": "oldAdmin",
          "type": "address"
        },
        {
          "indexed": false,
          "internalType": "address",
          "name": "newAdmin",
          "type": "address"
        }
      ],
      "name": "NewAdmin",
      "type": "event"
    },
    {
      "anonymous": false,
      "inputs": [
        {
          "indexed": false,
          "internalType": "contract ComptrollerInterface",
          "name": "oldComptroller",
          "type": "address"
        },
        {
          "indexed": false,
          "internalType": "contract ComptrollerInterface",
          "name": "newComptroller",
          "type": "address"
        }
      ],
      "name": "NewComptroller",
      "type": "event"
    },
    {
      "anonymous": false,
      "inputs": [
        {
          "indexed": false,
          "internalType": "contract InterestRateModel",
          "name": "oldInterestRateModel",
          "type": "address"
        },
        {
          "indexed": false,
          "internalType": "contract InterestRateModel",
          "name": "newInterestRateModel",
          "type": "address"
        }
      ],
      "name": "NewMarketInterestRateModel",
      "type": "event"
    },
    {
      "anonymous": false,
      "inputs": [
        {
          "indexed": false,
          "internalType": "address",
          "name": "oldPendingAdmin",
          "type": "address"
        },
        {
          "indexed": false,
          "internalType": "address",
          "name": "newPendingAdmin",
          "type": "address"
        }
      ],
      "name": "NewPendingAdmin",
      "type": "event"
    },
    {
      "anonymous": false,
      "inputs": [
        {
          "indexed": false,
          "internalType": "uint256",
          "name": "oldReserveFactorMantissa",
          "type": "uint256"
        },
        {
          "indexed": false,
          "internalType": "uint256",
          "name": "newReserveFactorMantissa",
          "type": "uint256"
        }
      ],
      "name": "NewReserveFactor",
      "type": "event"
    },
    {
      "anonymous": false,
      "inputs": [
        {
          "indexed": false,
          "internalType": "address",
          "name": "redeemer",
          "type": "address"
        },
        {
          "indexed": false,
          "internalType": "uint256",
          "name": "redeemAmount",
          "type": "uint256"
        },
        {
          "indexed": false,
          "internalType": "uint256",
          "name": "redeemTokens",
          "type": "uint256"
        }
      ],
      "name": "Redeem",
      "type": "event"
    },
    {
      "anonymous": false,
      "inputs": [
        {
          "indexed": false,
          "internalType": "address",
          "name": "payer",
          "type": "address"
        },
        {
          "indexed": false,
          "internalType": "address",
          "name": "borrower",
          "type": "address"
        },
        {
          "indexed": false,
          "internalType": "uint256",
          "name": "repayAmount",
          "type": "uint256"
        },
        {
          "indexed": false,
          "internalType": "uint256",
          "name": "accountBorrows",
          "type": "uint256"
        },
        {
          "indexed": false,
          "internalType": "uint256",
          "name": "totalBorrows",
          "type": "uint256"
        }
      ],
      "name": "RepayBorrow",
      "type": "event"
    },
    {
      "anonymous": false,
      "inputs": [
        {
          "indexed": false,
          "internalType": "address",
          "name": "benefactor",
          "type": "address"
        },
        {
          "indexed": false,
          "internalType": "uint256",
          "name": "addAmount",
          "type": "uint256"
        },
        {
          "indexed": false,
          "internalType": "uint256",
          "name": "newTotalReserves",
          "type": "uint256"
        }
      ],
      "name": "ReservesAdded",
      "type": "event"
    },
    {
      "anonymous": false,
      "inputs": [
        {
          "indexed": false,
          "internalType": "address",
          "name": "admin",
          "type": "address"
        },
        {
          "indexed": false,
          "internalType": "uint256",
          "name": "reduceAmount",
          "type": "uint256"
        },
        {
          "indexed": false,
          "internalType": "uint256",
          "name": "newTotalReserves",
          "type": "uint256"
        }
      ],
      "name": "ReservesReduced",
      "type": "event"
    },
    {
      "anonymous": false,
      "inputs": [
        {
          "indexed": true,
          "internalType": "address",
          "name": "from",
          "type": "address"
        },
        {
          "indexed": true,
          "internalType": "address",
          "name": "to",
          "type": "address"
        },
        {
          "indexed": false,
          "internalType": "uint256",
          "name": "amount",
          "type": "uint256"
        }
      ],
      "name": "Transfer",
      "type": "event"
    },
    {
      "constant": false,
      "inputs": [],
      "name": "_acceptAdmin",
      "outputs": [
        {
          "internalType": "uint256",
          "name": "",
          "type": "uint256"
        }
      ],
      "payable": false,
      "stateMutability": "nonpayable",
      "type": "function"
    },
    {
      "constant": false,
      "inputs": [
        {
          "internalType": "uint256",
          "name": "addAmount",
          "type": "uint256"
        }
      ],
      "name": "_addReserves",
      "outputs": [
        {
          "internalType": "uint256",
          "name": "",
          "type": "uint256"
        }
      ],
      "payable": false,
      "stateMutability": "nonpayable",
      "type": "function"
    },
    {
      "constant": false,
      "inputs": [
        {
          "internalType": "bytes",
          "name": "data",
          "type": "bytes"
        }
      ],
      "name": "_becomeImplementation",
      "outputs": [],
      "payable": false,
      "stateMutability": "nonpayable",
      "type": "function"
    },
    {
      "constant": false,
      "inputs": [
        {
          "internalType": "address",
          "name": "compLikeDelegatee",
          "type": "address"
        }
      ],
      "name": "_delegateCompLikeTo",
      "outputs": [],
      "payable": false,
      "stateMutability": "nonpayable",
      "type": "function"
    },
    {
      "constant": false,
      "inputs": [
        {
          "internalType": "uint256",
          "name": "reduceAmount",
          "type": "uint256"
        }
      ],
      "name": "_reduceReserves",
      "outputs": [
        {
          "internalType": "uint256",
          "name": "",
          "type": "uint256"
        }
      ],
      "payable": false,
      "stateMutability": "nonpayable",
      "type": "function"
    },
    {
      "constant": false,
      "inputs": [],
      "name": "_resignImplementation",
      "outputs": [],
      "payable": false,
      "stateMutability": "nonpayable",
      "type": "function"
    },
    {
      "constant": false,
      "inputs": [
        {
          "internalType": "contract ComptrollerInterface",
          "name": "newComptroller",
          "type": "address"
        }
      ],
      "name": "_setComptroller",
      "outputs": [
        {
          "internalType": "uint256",
          "name": "",
          "type": "uint256"
        }
      ],
      "payable": false,
      "stateMutability": "nonpayable",
      "type": "function"
    },
    {
      "constant": false,
      "inputs": [
        {
          "internalType": "contract InterestRateModel",
          "name": "newInterestRateModel",
          "type": "address"
        }
      ],
      "name": "_setInterestRateModel",
      "outputs": [
        {
          "internalType": "uint256",
          "name": "",
          "type": "uint256"
        }
      ],
      "payable": false,
      "stateMutability": "nonpayable",
      "type": "function"
    },
    {
      "constant": false,
      "inputs": [
        {
          "internalType": "address payable",
          "name": "newPendingAdmin",
          "type": "address"
        }
      ],
      "name": "_setPendingAdmin",
      "outputs": [
        {
          "internalType": "uint256",
          "name": "",
          "type": "uint256"
        }
      ],
      "payable": false,
      "stateMutability": "nonpayable",
      "type": "function"
    },
    {
      "constant": false,
      "inputs": [
        {
          "internalType": "uint256",
          "name": "newReserveFactorMantissa",
          "type": "uint256"
        }
      ],
      "name": "_setReserveFactor",
      "outputs": [
        {
          "internalType": "uint256",
          "name": "",
          "type": "uint256"
        }
      ],
      "payable": false,
      "stateMutability": "nonpayable",
      "type": "function"
    },
    {
      "constant": true,
      "inputs": [],
      "name": "accrualBlockNumber",
      "outputs": [
        {
          "internalType": "uint256",
          "name": "",
          "type": "uint256"
        }
      ],
      "payable": false,
      "stateMutability": "view",
      "type": "function"
    },
    {
      "constant": false,
      "inputs": [],
      "name": "accrueInterest",
      "outputs": [
        {
          "internalType": "uint256",
          "name": "",
          "type": "uint256"
        }
      ],
      "payable": false,
      "stateMutability": "nonpayable",
      "type": "function"
    },
    {
      "constant": true,
      "inputs": [],
      "name": "admin",
      "outputs": [
        {
          "internalType": "address payable",
          "name": "",
          "type": "address"
        }
      ],
      "payable": false,
      "stateMutability": "view",
      "type": "function"
    },
    {
      "constant": true,
      "inputs": [
        {
          "internalType": "address",
          "name": "owner",
          "type": "address"
        },
        {
          "internalType": "address",
          "name": "spender",
          "type": "address"
        }
      ],
      "name": "allowance",
      "outputs": [
        {
          "internalType": "uint256",
          "name": "",
          "type": "uint256"
        }
      ],
      "payable": false,
      "stateMutability": "view",
      "type": "function"
    },
    {
      "constant": false,
      "inputs": [
        {
          "internalType": "address",
          "name": "spender",
          "type": "address"
        },
        {
          "internalType": "uint256",
          "name": "amount",
          "type": "uint256"
        }
      ],
      "name": "approve",
      "outputs": [
        {
          "internalType": "bool",
          "name": "",
          "type": "bool"
        }
      ],
      "payable": false,
      "stateMutability": "nonpayable",
      "type": "function"
    },
    {
      "constant": true,
      "inputs": [
        {
          "internalType": "address",
          "name": "owner",
          "type": "address"
        }
      ],
      "name": "balanceOf",
      "outputs": [
        {
          "internalType": "uint256",
          "name": "",
          "type": "uint256"
        }
      ],
      "payable": false,
      "stateMutability": "view",
      "type": "function"
    },
    {
      "constant": false,
      "inputs": [
        {
          "internalType": "address",
          "name": "owner",
          "type": "address"
        }
      ],
      "name": "balanceOfUnderlying",
      "outputs": [
        {
          "internalType": "uint256",
          "name": "",
          "type": "uint256"
        }
      ],
      "payable": false,
      "stateMutability": "nonpayable",
      "type": "function"
    },
    {
      "constant": false,
      "inputs": [
        {
          "internalType": "uint256",
          "name": "borrowAmount",
          "type": "uint256"
        }
      ],
      "name": "borrow",
      "outputs": [
        {
          "internalType": "uint256",
          "name": "",
          "type": "uint256"
        }
      ],
      "payable": false,
      "stateMutability": "nonpayable",
      "type": "function"
    },
    {
      "constant": false,
      "inputs": [
        {
          "internalType": "address",
          "name": "account",
          "type": "address"
        }
      ],
      "name": "borrowBalanceCurrent",
      "outputs": [
        {
          "internalType": "uint256",
          "name": "",
          "type": "uint256"
        }
      ],
      "payable": false,
      "stateMutability": "nonpayable",
      "type": "function"
    },
    {
      "constant": true,
      "inputs": [
        {
          "internalType": "address",
          "name": "account",
          "type": "address"
        }
      ],
      "name": "borrowBalanceStored",
      "outputs": [
        {
          "internalType": "uint256",
          "name": "",
          "type": "uint256"
        }
      ],
      "payable": false,
      "stateMutability": "view",
      "type": "function"
    },
    {
      "constant": true,
      "inputs": [],
      "name": "borrowIndex",
      "outputs": [
        {
          "internalType": "uint256",
          "name": "",
          "type": "uint256"
        }
      ],
      "payable": false,
      "stateMutability": "view",
      "type": "function"
    },
    {
      "constant": true,
      "inputs": [],
      "name": "borrowRatePerBlock",
      "outputs": [
        {
          "internalType": "uint256",
          "name": "",
          "type": "uint256"
        }
      ],
      "payable": false,
      "stateMutability": "view",
      "type": "function"
    },
    {
      "constant": true,
      "inputs": [],
      "name": "comptroller",
      "outputs": [
        {
          "internalType": "contract ComptrollerInterface",
          "name": "",
          "type": "address"
        }
      ],
      "payable": false,
      "stateMutability": "view",
      "type": "function"
    },
    {
      "constant": true,
      "inputs": [],
      "name": "decimals",
      "outputs": [
        {
          "internalType": "uint8",
          "name": "",
          "type": "uint8"
        }
      ],
      "payable": false,
      "stateMutability": "view",
      "type": "function"
    },
    {
      "constant": false,
      "inputs": [],
      "name": "exchangeRateCurrent",
      "outputs": [
        {
          "internalType": "uint256",
          "name": "",
          "type": "uint256"
        }
      ],
      "payable": false,
      "stateMutability": "nonpayable",
      "type": "function"
    },
    {
      "constant": true,
      "inputs": [],
      "name": "exchangeRateStored",
      "outputs": [
        {
          "internalType": "uint256",
          "name": "",
          "type": "uint256"
        }
      ],
      "payable": false,
      "stateMutability": "view",
      "type": "function"
    },
    {
      "constant": true,
      "inputs": [
        {
          "internalType": "address",
          "name": "account",
          "type": "address"
        }
      ],
      "name": "getAccountSnapshot",
      "outputs": [
        {
          "internalType": "uint256",
          "name": "",
          "type": "uint256"
        },
        {
          "internalType": "uint256",
          "name": "",
          "type": "uint256"
        },
        {
          "internalType": "uint256",
          "name": "",
          "type": "uint256"
        },
        {
          "internalType": "uint256",
          "name": "",
          "type": "uint256"
        }
      ],
      "payable": false,
      "stateMutability": "view",
      "type": "function"
    },
    {
      "constant": true,
      "inputs": [],
      "name": "getCash",
      "outputs": [
        {
          "internalType": "uint256",
          "name": "",
          "type": "uint256"
        }
      ],
      "payable": false,
      "stateMutability": "view",
      "type": "function"
    },
    {
      "constant": true,
      "inputs": [],
      "name": "implementation",
      "outputs": [
        {
          "internalType": "address",
          "name": "",
          "type": "address"
        }
      ],
      "payable": false,
      "stateMutability": "view",
      "type": "function"
    },
    {
      "constant": false,
      "inputs": [
        {
          "internalType": "address",
          "name": "underlying_",
          "type": "address"
        },
        {
          "internalType": "contract ComptrollerInterface",
          "name": "comptroller_",
          "type": "address"
        },
        {
          "internalType": "contract InterestRateModel",
          "name": "interestRateModel_",
          "type": "address"
        },
        {
          "internalType": "uint256",
          "name": "initialExchangeRateMantissa_",
          "type": "uint256"
        },
        {
          "internalType": "string",
          "name": "name_",
          "type": "string"
        },
        {
          "internalType": "string",
          "name": "symbol_",
          "type": "string"
        },
        {
          "internalType": "uint8",
          "name": "decimals_",
          "type": "uint8"
        }
      ],
      "name": "initialize",
      "outputs": [],
      "payable": false,
      "stateMutability": "nonpayable",
      "type": "function"
    },
    {
      "constant": false,
      "inputs": [
        {
          "internalType": "contract ComptrollerInterface",
          "name": "comptroller_",
          "type": "address"
        },
        {
          "internalType": "contract InterestRateModel",
          "name": "interestRateModel_",
          "type": "address"
        },
        {
          "internalType": "uint256",
          "name": "initialExchangeRateMantissa_",
          "type": "uint256"
        },
        {
          "internalType": "string",
          "name": "name_",
          "type": "string"
        },
        {
          "internalType": "string",
          "name": "symbol_",
          "type": "string"
        },
        {
          "internalType": "uint8",
          "name": "decimals_",
          "type": "uint8"
        }
      ],
      "name": "initialize",
      "outputs": [],
      "payable": false,
      "stateMutability": "nonpayable",
      "type": "function"
    },
    {
      "constant": true,
      "inputs": [],
      "name": "interestRateModel",
      "outputs": [
        {
          "internalType": "contract InterestRateModel",
          "name": "",
          "type": "address"
        }
      ],
      "payable": false,
      "stateMutability": "view",
      "type": "function"
    },
    {
      "constant": true,
      "inputs": [],
      "name": "isCToken",
      "outputs": [
        {
          "internalType": "bool",
          "name": "",
          "type": "bool"
        }
      ],
      "payable": false,
      "stateMutability": "view",
      "type": "function"
    },
    {
      "constant": false,
      "inputs": [
        {
          "internalType": "address",
          "name": "borrower",
          "type": "address"
        },
        {
          "internalType": "uint256",
          "name": "repayAmount",
          "type": "uint256"
        },
        {
          "internalType": "contract CTokenInterface",
          "name": "cTokenCollateral",
          "type": "address"
        }
      ],
      "name": "liquidateBorrow",
      "outputs": [
        {
          "internalType": "uint256",
          "name": "",
          "type": "uint256"
        }
      ],
      "payable": false,
      "stateMutability": "nonpayable",
      "type": "function"
    },
    {
      "constant": false,
      "inputs": [
        {
          "internalType": "uint256",
          "name": "mintAmount",
          "type": "uint256"
        }
      ],
      "name": "mint",
      "outputs": [
        {
          "internalType": "uint256",
          "name": "",
          "type": "uint256"
        }
      ],
      "payable": false,
      "stateMutability": "nonpayable",
      "type": "function"
    },
    {
      "constant": true,
      "inputs": [],
      "name": "name",
      "outputs": [
        {
          "internalType": "string",
          "name": "",
          "type": "string"
        }
      ],
      "payable": false,
      "stateMutability": "view",
      "type": "function"
    },
    {
      "constant": true,
      "inputs": [],
      "name": "pendingAdmin",
      "outputs": [
        {
          "internalType": "address payable",
          "name": "",
          "type": "address"
        }
      ],
      "payable": false,
      "stateMutability": "view",
      "type": "function"
    },
    {
      "constant": true,
      "inputs": [],
      "name": "protocolSeizeShareMantissa",
      "outputs": [
        {
          "internalType": "uint256",
          "name": "",
          "type": "uint256"
        }
      ],
      "payable": false,
      "stateMutability": "view",
      "type": "function"
    },
    {
      "constant": false,
      "inputs": [
        {
          "internalType": "uint256",
          "name": "redeemTokens",
          "type": "uint256"
        }
      ],
      "name": "redeem",
      "outputs": [
        {
          "internalType": "uint256",
          "name": "",
          "type": "uint256"
        }
      ],
      "payable": false,
      "stateMutability": "nonpayable",
      "type": "function"
    },
    {
      "constant": false,
      "inputs": [
        {
          "internalType": "uint256",
          "name": "redeemAmount",
          "type": "uint256"
        }
      ],
      "name": "redeemUnderlying",
      "outputs": [
        {
          "internalType": "uint256",
          "name": "",
          "type": "uint256"
        }
      ],
      "payable": false,
      "stateMutability": "nonpayable",
      "type": "function"
    },
    {
      "constant": false,
      "inputs": [
        {
          "internalType": "uint256",
          "name": "repayAmount",
          "type": "uint256"
        }
      ],
      "name": "repayBorrow",
      "outputs": [
        {
          "internalType": "uint256",
          "name": "",
          "type": "uint256"
        }
      ],
      "payable": false,
      "stateMutability": "nonpayable",
      "type": "function"
    },
    {
      "constant": false,
      "inputs": [
        {
          "internalType": "address",
          "name": "borrower",
          "type": "address"
        },
        {
          "internalType": "uint256",
          "name": "repayAmount",
          "type": "uint256"
        }
      ],
      "name": "repayBorrowBehalf",
      "outputs": [
        {
          "internalType": "uint256",
          "name": "",
          "type": "uint256"
        }
      ],
      "payable": false,
      "stateMutability": "nonpayable",
      "type": "function"
    },
    {
      "constant": true,
      "inputs": [],
      "name": "reserveFactorMantissa",
      "outputs": [
        {
          "internalType": "uint256",
          "name": "",
          "type": "uint256"
        }
      ],
      "payable": false,
      "stateMutability": "view",
      "type": "function"
    },
    {
      "constant": false,
      "inputs": [
        {
          "internalType": "address",
          "name": "liquidator",
          "type": "address"
        },
        {
          "internalType": "address",
          "name": "borrower",
          "type": "address"
        },
        {
          "internalType": "uint256",
          "name": "seizeTokens",
          "type": "uint256"
        }
      ],
      "name": "seize",
      "outputs": [
        {
          "internalType": "uint256",
          "name": "",
          "type": "uint256"
        }
      ],
      "payable": false,
      "stateMutability": "nonpayable",
      "type": "function"
    },
    {
      "constant": true,
      "inputs": [],
      "name": "supplyRatePerBlock",
      "outputs": [
        {
          "internalType": "uint256",
          "name": "",
          "type": "uint256"
        }
      ],
      "payable": false,
      "stateMutability": "view",
      "type": "function"
    },
    {
      "constant": false,
      "inputs": [
        {
          "internalType": "contract EIP20NonStandardInterface",
          "name": "token",
          "type": "address"
        }
      ],
      "name": "sweepToken",
      "outputs": [],
      "payable": false,
      "stateMutability": "nonpayable",
      "type": "function"
    },
    {
      "constant": true,
      "inputs": [],
      "name": "symbol",
      "outputs": [
        {
          "internalType": "string",
          "name": "",
          "type": "string"
        }
      ],
      "payable": false,
      "stateMutability": "view",
      "type": "function"
    },
    {
      "constant": true,
      "inputs": [],
      "name": "totalBorrows",
      "outputs": [
        {
          "internalType": "uint256",
          "name": "",
          "type": "uint256"
        }
      ],
      "payable": false,
      "stateMutability": "view",
      "type": "function"
    },
    {
      "constant": false,
      "inputs": [],
      "name": "totalBorrowsCurrent",
      "outputs": [
        {
          "internalType": "uint256",
          "name": "",
          "type": "uint256"
        }
      ],
      "payable": false,
      "stateMutability": "nonpayable",
      "type": "function"
    },
    {
      "constant": true,
      "inputs": [],
      "name": "totalReserves",
      "outputs": [
        {
          "internalType": "uint256",
          "name": "",
          "type": "uint256"
        }
      ],
      "payable": false,
      "stateMutability": "view",
      "type": "function"
    },
    {
      "constant": true,
      "inputs": [],
      "name": "totalSupply",
      "outputs": [
        {
          "internalType": "uint256",
          "name": "",
          "type": "uint256"
        }
      ],
      "payable": false,
      "stateMutability": "view",
      "type": "function"
    },
    {
      "constant": false,
      "inputs": [
        {
          "internalType": "address",
          "name": "dst",
          "type": "address"
        },
        {
          "internalType": "uint256",
          "name": "amount",
          "type": "uint256"
        }
      ],
      "name": "transfer",
      "outputs": [
        {
          "internalType": "bool",
          "name": "",
          "type": "bool"
        }
      ],
      "payable": false,
      "stateMutability": "nonpayable",
      "type": "function"
    },
    {
      "constant": false,
      "inputs": [
        {
          "internalType": "address",
          "name": "src",
          "type": "address"
        },
        {
          "internalType": "address",
          "name": "dst",
          "type": "address"
        },
        {
          "internalType": "uint256",
          "name": "amount",
          "type": "uint256"
        }
      ],
      "name": "transferFrom",
      "outputs": [
        {
          "internalType": "bool",
          "name": "",
          "type": "bool"
        }
      ],
      "payable": false,
      "stateMutability": "nonpayable",
      "type": "function"
    },
    {
      "constant": true,
      "inputs": [],
      "name": "underlying",
      "outputs": [
        {
          "internalType": "address",
          "name": "",
          "type": "address"
        }
      ],
      "payable": false,
      "stateMutability": "view",
      "type": "function"
    }
  ],
  "transactionHash": "0xbeb8533dd73e423295683925a817db19494fd45f4b61ee99bbbec9e96d3e263e",
  "args": [],
  "numDeployments": 1,
  "solcInputHash": "0eefe0af7f2a33404c637e27724f236f",
  "bytecode": "0x608060405234801561001057600080fd5b506155de806100206000396000f3fe608060405234801561001057600080fd5b50600436106103425760003560e01c806373acee98116101b8578063b71d1a0c11610104578063f2b3abbd116100a2578063f851a4401161007c578063f851a44014610bd7578063f8f9da2814610bdf578063fca7820b14610be7578063fe9c44ae14610c0457610342565b8063f2b3abbd14610b73578063f3fdb15a14610b99578063f5e3c46214610ba157610342565b8063c5ebeaec116100de578063c5ebeaec14610b03578063db006a7514610b20578063dd62ed3e14610b3d578063e9c714f214610b6b57610342565b8063b71d1a0c14610a89578063bd6d894d14610aaf578063c37f68e214610ab757610342565b806399d8c1b411610171578063a9059cbb1161014b578063a9059cbb14610a17578063aa5af0fd14610a43578063ae9d70b014610a4b578063b2a02ff114610a5357610342565b806399d8c1b4146108a4578063a0712d68146109f2578063a6afed9514610a0f57610342565b806373acee98146108235780637f1e06be1461082b578063852a12e3146108515780638f840ddd1461086e57806395d89b411461087657806395dd91931461087e57610342565b8063313ce567116102925780635c60da1b116102305780636752e7021161020a5780636752e702146107e55780636c540baf146107ed5780636f307dc3146107f557806370a08231146107fd57610342565b80635c60da1b146107b85780635fe3b567146107c0578063601a0bf1146107c857610342565b80633e9410101161026c5780633e941010146106c95780634576b5db146106e657806347bd37181461070c57806356e677281461071457610342565b8063313ce5671461067d5780633af9e6691461069b5780633b1d21a2146106c157610342565b806318160ddd116102ff5780631be19560116102d95780631be19560146105d157806323b872dd146105f75780632608f8181461062d578063267822471461065957610342565b806318160ddd1461046b578063182df0f5146104735780631a31d4651461047b57610342565b806306fdde0314610347578063095ea7b3146103c45780630e75270214610404578063153ab50514610433578063173b99041461043d57806317bfdfbc14610445575b600080fd5b61034f610c0c565b6040805160208082528351818301528351919283929083019185019080838360005b83811015610389578181015183820152602001610371565b50505050905090810190601f1680156103b65780820380516001836020036101000a031916815260200191505b509250505060405180910390f35b6103f0600480360360408110156103da57600080fd5b506001600160a01b038135169060200135610c99565b604080519115158252519081900360200190f35b6104216004803603602081101561041a57600080fd5b5035610d06565b60408051918252519081900360200190f35b61043b610d1c565b005b610421610d6c565b6104216004803603602081101561045b57600080fd5b50356001600160a01b0316610d72565b610421610e32565b610421610e38565b61043b600480360360e081101561049157600080fd5b6001600160a01b03823581169260208101358216926040820135909216916060820135919081019060a081016080820135600160201b8111156104d357600080fd5b8201836020820111156104e557600080fd5b803590602001918460018302840111600160201b8311171561050657600080fd5b91908080601f0160208091040260200160405190810160405280939291908181526020018383808284376000920191909152509295949360208101935035915050600160201b81111561055857600080fd5b82018360208201111561056a57600080fd5b803590602001918460018302840111600160201b8311171561058b57600080fd5b91908080601f0160208091040260200160405190810160405280939291908181526020018383808284376000920191909152509295505050903560ff169150610e9b9050565b61043b600480360360208110156105e757600080fd5b50356001600160a01b0316610f3a565b6103f06004803603606081101561060d57600080fd5b506001600160a01b03813581169160208101359091169060400135611076565b6104216004803603604081101561064357600080fd5b506001600160a01b0381351690602001356110e8565b6106616110fe565b604080516001600160a01b039092168252519081900360200190f35b61068561110d565b6040805160ff9092168252519081900360200190f35b610421600480360360208110156106b157600080fd5b50356001600160a01b0316611116565b6104216111cc565b610421600480360360208110156106df57600080fd5b50356111db565b610421600480360360208110156106fc57600080fd5b50356001600160a01b03166111e6565b61042161133b565b61043b6004803603602081101561072a57600080fd5b810190602081018135600160201b81111561074457600080fd5b82018360208201111561075657600080fd5b803590602001918460018302840111600160201b8311171561077757600080fd5b91908080601f016020809104026020016040519081016040528093929190818152602001838380828437600092019190915250929550611341945050505050565b610661611392565b6106616113a1565b610421600480360360208110156107de57600080fd5b50356113b0565b61042161144b565b610421611456565b61066161145c565b6104216004803603602081101561081357600080fd5b50356001600160a01b031661146b565b610421611486565b61043b6004803603602081101561084157600080fd5b50356001600160a01b031661153c565b6104216004803603602081101561086757600080fd5b50356115f3565b6104216115fe565b61034f611604565b6104216004803603602081101561089457600080fd5b50356001600160a01b031661165c565b61043b600480360360c08110156108ba57600080fd5b6001600160a01b03823581169260208101359091169160408201359190810190608081016060820135600160201b8111156108f457600080fd5b82018360208201111561090657600080fd5b803590602001918460018302840111600160201b8311171561092757600080fd5b91908080601f0160208091040260200160405190810160405280939291908181526020018383808284376000920191909152509295949360208101935035915050600160201b81111561097957600080fd5b82018360208201111561098b57600080fd5b803590602001918460018302840111600160201b831117156109ac57600080fd5b91908080601f0160208091040260200160405190810160405280939291908181526020018383808284376000920191909152509295505050903560ff1691506116b99050565b61042160048036036020811015610a0857600080fd5b50356118a0565b6104216118ac565b6103f060048036036040811015610a2d57600080fd5b506001600160a01b038135169060200135611c04565b610421611c75565b610421611c7b565b61042160048036036060811015610a6957600080fd5b506001600160a01b03813581169160208101359091169060400135611d1a565b61042160048036036020811015610a9f57600080fd5b50356001600160a01b0316611d8b565b610421611e17565b610add60048036036020811015610acd57600080fd5b50356001600160a01b0316611ed3565b604080519485526020850193909352838301919091526060830152519081900360800190f35b61042160048036036020811015610b1957600080fd5b5035611f68565b61042160048036036020811015610b3657600080fd5b5035611f73565b61042160048036036040811015610b5357600080fd5b506001600160a01b0381358116916020013516611f7e565b610421611fa9565b61042160048036036020811015610b8957600080fd5b50356001600160a01b03166120ac565b6106616120e6565b61042160048036036060811015610bb757600080fd5b506001600160a01b038135811691602081013591604090910135166120f5565b61066161210d565b610421612121565b61042160048036036020811015610bfd57600080fd5b5035612185565b6103f0612203565b60018054604080516020600284861615610100026000190190941693909304601f81018490048402820184019092528181529291830182828015610c915780601f10610c6657610100808354040283529160200191610c91565b820191906000526020600020905b815481529060010190602001808311610c7457829003601f168201915b505050505081565b336000818152600f602090815260408083206001600160a01b03871680855290835281842086905581518681529151939493909284927f8c5be1e5ebec7d5bd14f71427d1e84f3dd0314c0f7b2291e5b200ac8c7c3b925929081900390910190a360019150505b92915050565b600080610d1283612208565b509150505b919050565b60035461010090046001600160a01b03163314610d6a5760405162461bcd60e51b815260040180806020018281038252602d81526020018061537b602d913960400191505060405180910390fd5b565b60085481565b6000805460ff16610db7576040805162461bcd60e51b815260206004820152600a6024820152691c994b595b9d195c995960b21b604482015290519081900360640190fd5b6000805460ff19168155610dc96118ac565b14610e14576040805162461bcd60e51b81526020600482015260166024820152751858d8dc9d59481a5b9d195c995cdd0819985a5b195960521b604482015290519081900360640190fd5b610e1d8261165c565b90505b6000805460ff19166001179055919050565b600d5481565b6000806000610e456122b1565b90925090506000826003811115610e5857fe5b14610e945760405162461bcd60e51b81526004018080602001828103825260358152602001806154c86035913960400191505060405180910390fd5b9150505b90565b610ea98686868686866116b9565b601180546001600160a01b0319166001600160a01b038981169190911791829055604080516318160ddd60e01b8152905192909116916318160ddd91600480820192602092909190829003018186803b158015610f0557600080fd5b505afa158015610f19573d6000803e3d6000fd5b505050506040513d6020811015610f2f57600080fd5b505050505050505050565b6011546001600160a01b0382811691161415610f875760405162461bcd60e51b81526004018080602001828103825260328152602001806152ca6032913960400191505060405180910390fd5b604080516370a0823160e01b815230600482015290516000916001600160a01b038416916370a0823191602480820192602092909190829003018186803b158015610fd157600080fd5b505afa158015610fe5573d6000803e3d6000fd5b505050506040513d6020811015610ffb57600080fd5b50516003546040805163a9059cbb60e01b81526101009092046001600160a01b03908116600484015260248301849052905192935084169163a9059cbb9160448082019260009290919082900301818387803b15801561105a57600080fd5b505af115801561106e573d6000803e3d6000fd5b505050505050565b6000805460ff166110bb576040805162461bcd60e51b815260206004820152600a6024820152691c994b595b9d195c995960b21b604482015290519081900360640190fd5b6000805460ff191681556110d133868686612360565b1490506000805460ff191660011790559392505050565b6000806110f584846125ec565b50949350505050565b6004546001600160a01b031681565b60035460ff1681565b60006111206150dd565b6040518060200160405280611133611e17565b90526001600160a01b0384166000908152600e602052604081205491925090819061115f908490612697565b9092509050600082600381111561117257fe5b146111c4576040805162461bcd60e51b815260206004820152601f60248201527f62616c616e636520636f756c64206e6f742062652063616c63756c6174656400604482015290519081900360640190fd5b949350505050565b60006111d66126eb565b905090565b6000610d008261276b565b60035460009061010090046001600160a01b031633146112135761120c6001603f6127ff565b9050610d17565b60055460408051623f1ee960e11b815290516001600160a01b0392831692851691627e3dd2916004808301926020929190829003018186803b15801561125857600080fd5b505afa15801561126c573d6000803e3d6000fd5b505050506040513d602081101561128257600080fd5b50516112d5576040805162461bcd60e51b815260206004820152601c60248201527f6d61726b6572206d6574686f642072657475726e65642066616c736500000000604482015290519081900360640190fd5b600580546001600160a01b0319166001600160a01b03858116918217909255604080519284168352602083019190915280517f7ac369dbd14fa5ea3f473ed67cc9d598964a77501540ba6751eb0b3decf5870d9281900390910190a160005b9392505050565b600b5481565b60035461010090046001600160a01b0316331461138f5760405162461bcd60e51b815260040180806020018281038252602d81526020018061557d602d913960400191505060405180910390fd5b50565b6012546001600160a01b031681565b6005546001600160a01b031681565b6000805460ff166113f5576040805162461bcd60e51b815260206004820152600a6024820152691c994b595b9d195c995960b21b604482015290519081900360640190fd5b6000805460ff191681556114076118ac565b9050801561142d5761142581601081111561141e57fe5b60306127ff565b915050610e20565b61143683612865565b9150506000805460ff19166001179055919050565b666379da05b6000081565b60095481565b6011546001600160a01b031681565b6001600160a01b03166000908152600e602052604090205490565b6000805460ff166114cb576040805162461bcd60e51b815260206004820152600a6024820152691c994b595b9d195c995960b21b604482015290519081900360640190fd5b6000805460ff191681556114dd6118ac565b14611528576040805162461bcd60e51b81526020600482015260166024820152751858d8dc9d59481a5b9d195c995cdd0819985a5b195960521b604482015290519081900360640190fd5b50600b546000805460ff1916600117905590565b60035461010090046001600160a01b0316331461158a5760405162461bcd60e51b815260040180806020018281038252602d81526020018061532c602d913960400191505060405180910390fd5b601154604080516317066a5760e21b81526001600160a01b03848116600483015291519190921691635c19a95c91602480830192600092919082900301818387803b1580156115d857600080fd5b505af11580156115ec573d6000803e3d6000fd5b5050505050565b6000610d0082612998565b600c5481565b6002805460408051602060018416156101000260001901909316849004601f81018490048402820184019092528181529291830182828015610c915780601f10610c6657610100808354040283529160200191610c91565b600080600061166a84612a19565b9092509050600082600381111561167d57fe5b146113345760405162461bcd60e51b81526004018080602001828103825260378152602001806153d36037913960400191505060405180910390fd5b60035461010090046001600160a01b031633146117075760405162461bcd60e51b81526004018080602001828103825260248152602001806152836024913960400191505060405180910390fd5b6009541580156117175750600a54155b6117525760405162461bcd60e51b81526004018080602001828103825260238152602001806152a76023913960400191505060405180910390fd5b6007849055836117935760405162461bcd60e51b81526004018080602001828103825260308152602001806152fc6030913960400191505060405180910390fd5b600061179e876111e6565b905080156117f3576040805162461bcd60e51b815260206004820152601a60248201527f73657474696e6720636f6d7074726f6c6c6572206661696c6564000000000000604482015290519081900360640190fd5b6117fb612acd565b600955670de0b6b3a7640000600a5561181386612ad1565b905080156118525760405162461bcd60e51b81526004018080602001828103825260228152602001806153596022913960400191505060405180910390fd5b83516118659060019060208701906150f0565b5082516118799060029060208601906150f0565b50506003805460ff90921660ff199283161790556000805490911660011790555050505050565b600080610d1283612c46565b6000806118b7612acd565b600954909150808214156118d057600092505050610e98565b60006118da6126eb565b600b54600c54600a54600654604080516315f2405360e01b815260048101879052602481018690526044810185905290519596509394929391926000926001600160a01b03909216916315f24053916064808301926020929190829003018186803b15801561194857600080fd5b505afa15801561195c573d6000803e3d6000fd5b505050506040513d602081101561197257600080fd5b5051905065048c273950008111156119d1576040805162461bcd60e51b815260206004820152601c60248201527f626f72726f772072617465206973206162737572646c79206869676800000000604482015290519081900360640190fd5b6000806119de8989612cc7565b909250905060008260038111156119f157fe5b14611a43576040805162461bcd60e51b815260206004820152601f60248201527f636f756c64206e6f742063616c63756c61746520626c6f636b2064656c746100604482015290519081900360640190fd5b611a4b6150dd565b600080600080611a6960405180602001604052808a81525087612cea565b90975094506000876003811115611a7c57fe5b14611aae57611a9960096006896003811115611a9457fe5b612d52565b9e505050505050505050505050505050610e98565b611ab8858c612697565b90975093506000876003811115611acb57fe5b14611ae357611a9960096001896003811115611a9457fe5b611aed848c612db8565b90975092506000876003811115611b0057fe5b14611b1857611a9960096004896003811115611a9457fe5b611b336040518060200160405280600854815250858c612dde565b90975091506000876003811115611b4657fe5b14611b5e57611a9960096005896003811115611a9457fe5b611b69858a8b612dde565b90975090506000876003811115611b7c57fe5b14611b9457611a9960096003896003811115611a9457fe5b60098e9055600a819055600b839055600c829055604080518d8152602081018690528082018390526060810185905290517f4dec04e750ca11537cabcd8a9eab06494de08da3735bc8871cd41250e190bc049181900360800190a160009e50505050505050505050505050505090565b6000805460ff16611c49576040805162461bcd60e51b815260206004820152600a6024820152691c994b595b9d195c995960b21b604482015290519081900360640190fd5b6000805460ff19168155611c5f33338686612360565b1490506000805460ff1916600117905592915050565b600a5481565b6006546000906001600160a01b031663b8168816611c976126eb565b600b54600c546008546040518563ffffffff1660e01b81526004018085815260200184815260200183815260200182815260200194505050505060206040518083038186803b158015611ce957600080fd5b505afa158015611cfd573d6000803e3d6000fd5b505050506040513d6020811015611d1357600080fd5b5051905090565b6000805460ff16611d5f576040805162461bcd60e51b815260206004820152600a6024820152691c994b595b9d195c995960b21b604482015290519081900360640190fd5b6000805460ff19169055611d7533858585612e3a565b90506000805460ff191660011790559392505050565b60035460009061010090046001600160a01b03163314611db15761120c600160456127ff565b600480546001600160a01b038481166001600160a01b0319831681179093556040805191909216808252602082019390935281517fca4f2f25d0898edd99413412fb94012f9e54ec8142f9b093e7720646a95b16a9929181900390910190a16000611334565b6000805460ff16611e5c576040805162461bcd60e51b815260206004820152600a6024820152691c994b595b9d195c995960b21b604482015290519081900360640190fd5b6000805460ff19168155611e6e6118ac565b14611eb9576040805162461bcd60e51b81526020600482015260166024820152751858d8dc9d59481a5b9d195c995cdd0819985a5b195960521b604482015290519081900360640190fd5b611ec1610e38565b90506000805460ff1916600117905590565b6001600160a01b0381166000908152600e6020526040812054819081908190818080611efe89612a19565b935090506000816003811115611f1057fe5b14611f2e5760095b975060009650869550859450611f619350505050565b611f366122b1565b925090506000816003811115611f4857fe5b14611f54576009611f18565b5060009650919450925090505b9193509193565b6000610d0082613214565b6000610d0082613293565b6001600160a01b039182166000908152600f6020908152604080832093909416825291909152205490565b6004546000906001600160a01b031633141580611fc4575033155b15611fdc57611fd5600160006127ff565b9050610e98565b60038054600480546001600160a01b03818116610100818102610100600160a81b0319871617968790556001600160a01b031990931690935560408051948390048216808652929095041660208401528351909391927ff9ffabca9c8276e99321725bcb43fb076a6c66a54b7f21c4e8146d8519b417dc92908290030190a1600454604080516001600160a01b038085168252909216602083015280517fca4f2f25d0898edd99413412fb94012f9e54ec8142f9b093e7720646a95b16a99281900390910190a160009250505090565b6000806120b76118ac565b905080156120dd576120d58160108111156120ce57fe5b60406127ff565b915050610d17565b61133483612ad1565b6006546001600160a01b031681565b60008061210385858561330d565b5095945050505050565b60035461010090046001600160a01b031681565b6006546000906001600160a01b03166315f2405361213d6126eb565b600b54600c546040518463ffffffff1660e01b815260040180848152602001838152602001828152602001935050505060206040518083038186803b158015611ce957600080fd5b6000805460ff166121ca576040805162461bcd60e51b815260206004820152600a6024820152691c994b595b9d195c995960b21b604482015290519081900360640190fd5b6000805460ff191681556121dc6118ac565b905080156121fa576114258160108111156121f357fe5b60466127ff565b6114368361343f565b600181565b60008054819060ff1661224f576040805162461bcd60e51b815260206004820152600a6024820152691c994b595b9d195c995960b21b604482015290519081900360640190fd5b6000805460ff191681556122616118ac565b9050801561228c5761227f81601081111561227857fe5b60366127ff565b92506000915061229d9050565b6122973333866134e7565b92509250505b6000805460ff191660011790559092909150565b600d546000908190806122cc5750506007546000915061235c565b60006122d66126eb565b905060006122e26150dd565b60006122f384600b54600c54613835565b93509050600081600381111561230557fe5b1461231a5795506000945061235c9350505050565b6123248386613873565b92509050600081600381111561233657fe5b1461234b5795506000945061235c9350505050565b505160009550935061235c92505050565b9091565b600554604080516317b9b84b60e31b81523060048201526001600160a01b03868116602483015285811660448301526064820185905291516000938493169163bdcdc25891608480830192602092919082900301818787803b1580156123c557600080fd5b505af11580156123d9573d6000803e3d6000fd5b505050506040513d60208110156123ef57600080fd5b50519050801561240e576124066003604a83612d52565b9150506111c4565b836001600160a01b0316856001600160a01b03161415612434576124066002604b6127ff565b60006001600160a01b038781169087161415612453575060001961247b565b506001600160a01b038086166000908152600f60209081526040808320938a16835292905220545b60008060008061248b8589612cc7565b9094509250600084600381111561249e57fe5b146124bc576124af6009604b6127ff565b96505050505050506111c4565b6001600160a01b038a166000908152600e60205260409020546124df9089612cc7565b909450915060008460038111156124f257fe5b14612503576124af6009604c6127ff565b6001600160a01b0389166000908152600e60205260409020546125269089612db8565b9094509050600084600381111561253957fe5b1461254a576124af6009604d6127ff565b6001600160a01b03808b166000908152600e6020526040808220859055918b1681522081905560001985146125a2576001600160a01b03808b166000908152600f60209081526040808320938f168352929052208390555b886001600160a01b03168a6001600160a01b03166000805160206154448339815191528a6040518082815260200191505060405180910390a35060009a9950505050505050505050565b60008054819060ff16612633576040805162461bcd60e51b815260206004820152600a6024820152691c994b595b9d195c995960b21b604482015290519081900360640190fd5b6000805460ff191681556126456118ac565b905080156126705761266381601081111561265c57fe5b60356127ff565b9250600091506126819050565b61267b3386866134e7565b92509250505b6000805460ff1916600117905590939092509050565b60008060006126a46150dd565b6126ae8686612cea565b909250905060008260038111156126c157fe5b146126d257509150600090506126e4565b60006126dd82613923565b9350935050505b9250929050565b601154604080516370a0823160e01b815230600482015290516000926001600160a01b03169182916370a0823191602480820192602092909190829003018186803b15801561273957600080fd5b505afa15801561274d573d6000803e3d6000fd5b505050506040513d602081101561276357600080fd5b505191505090565b6000805460ff166127b0576040805162461bcd60e51b815260206004820152600a6024820152691c994b595b9d195c995960b21b604482015290519081900360640190fd5b6000805460ff191681556127c26118ac565b905080156127e0576114258160108111156127d957fe5b604e6127ff565b6127e983613932565b509150506000805460ff19166001179055919050565b60007f45b96fe442630264581b197e84bbada861235052c5a1aadfff9ea4e40a969aa083601081111561282e57fe5b83605081111561283a57fe5b604080519283526020830191909152600082820152519081900360600190a182601081111561133457fe5b600354600090819061010090046001600160a01b0316331461288d576120d5600160316127ff565b612895612acd565b600954146128a9576120d5600a60336127ff565b826128b26126eb565b10156128c4576120d5600e60326127ff565b600c548311156128da576120d5600260346127ff565b50600c54828103908111156129205760405162461bcd60e51b81526004018080602001828103825260248152602001806155596024913960400191505060405180910390fd5b600c8190556003546129409061010090046001600160a01b031684613a1a565b600354604080516101009092046001600160a01b0316825260208201859052818101839052517f3bad0c59cf2f06e7314077049f48a93578cd16f5ef92329f1dab1420a99c177e916060908290030190a16000611334565b6000805460ff166129dd576040805162461bcd60e51b815260206004820152600a6024820152691c994b595b9d195c995960b21b604482015290519081900360640190fd5b6000805460ff191681556129ef6118ac565b90508015612a0d57611425816010811115612a0657fe5b60276127ff565b61143633600085613b11565b6001600160a01b038116600090815260106020526040812080548291829182918291612a50575060009450849350612ac892505050565b612a608160000154600a54613fd8565b90945092506000846003811115612a7357fe5b14612a88575091935060009250612ac8915050565b612a96838260010154614017565b90945091506000846003811115612aa957fe5b14612abe575091935060009250612ac8915050565b5060009450925050505b915091565b4390565b600354600090819061010090046001600160a01b03163314612af9576120d5600160426127ff565b612b01612acd565b60095414612b15576120d5600a60416127ff565b600660009054906101000a90046001600160a01b03169050826001600160a01b0316632191f92a6040518163ffffffff1660e01b815260040160206040518083038186803b158015612b6657600080fd5b505afa158015612b7a573d6000803e3d6000fd5b505050506040513d6020811015612b9057600080fd5b5051612be3576040805162461bcd60e51b815260206004820152601c60248201527f6d61726b6572206d6574686f642072657475726e65642066616c736500000000604482015290519081900360640190fd5b600680546001600160a01b0319166001600160a01b03858116918217909255604080519284168352602083019190915280517fedffc32e068c7c95dfd4bdfd5c4d939a084d6b11c4199eac8436ed234d72f9269281900390910190a16000611334565b60008054819060ff16612c8d576040805162461bcd60e51b815260206004820152600a6024820152691c994b595b9d195c995960b21b604482015290519081900360640190fd5b6000805460ff19168155612c9f6118ac565b90508015612cbd5761227f816010811115612cb657fe5b601e6127ff565b6122973385614042565b600080838311612cde5750600090508183036126e4565b506003905060006126e4565b6000612cf46150dd565b600080612d05866000015186613fd8565b90925090506000826003811115612d1857fe5b14612d37575060408051602081019091526000815290925090506126e4565b60408051602081019091529081526000969095509350505050565b60007f45b96fe442630264581b197e84bbada861235052c5a1aadfff9ea4e40a969aa0846010811115612d8157fe5b846050811115612d8d57fe5b604080519283526020830191909152818101859052519081900360600190a18360108111156111c457fe5b600080838301848110612dd0576000925090506126e4565b5060029150600090506126e4565b6000806000612deb6150dd565b612df58787612cea565b90925090506000826003811115612e0857fe5b14612e195750915060009050612e32565b612e2b612e2582613923565b86612db8565b9350935050505b935093915050565b6005546040805163d02f735160e01b81523060048201526001600160a01b038781166024830152868116604483015285811660648301526084820185905291516000938493169163d02f73519160a480830192602092919082900301818787803b158015612ea757600080fd5b505af1158015612ebb573d6000803e3d6000fd5b505050506040513d6020811015612ed157600080fd5b505190508015612ee8576124066003601b83612d52565b846001600160a01b0316846001600160a01b03161415612f0e576124066006601c6127ff565b612f1661516e565b6001600160a01b0385166000908152600e6020526040902054612f399085612cc7565b6020830181905282826003811115612f4d57fe5b6003811115612f5857fe5b9052506000905081516003811115612f6c57fe5b14612f9157612f886009601a83600001516003811115611a9457fe5b925050506111c4565b612fb0846040518060200160405280666379da05b60000815250614412565b60808201819052612fc290859061443a565b6060820152612fcf6122b1565b60c0830181905282826003811115612fe357fe5b6003811115612fee57fe5b905250600090508151600381111561300257fe5b14613054576040805162461bcd60e51b815260206004820152601860248201527f65786368616e67652072617465206d617468206572726f720000000000000000604482015290519081900360640190fd5b61307460405180602001604052808360c001518152508260800151614474565b60a08201819052600c5461308791614493565b60e0820152600d54608082015161309e919061443a565b6101008201526001600160a01b0386166000908152600e602052604090205460608201516130cc9190612db8565b60408301819052828260038111156130e057fe5b60038111156130eb57fe5b90525060009050815160038111156130ff57fe5b1461311b57612f886009601983600001516003811115611a9457fe5b60e0810151600c55610100810151600d556020808201516001600160a01b038088166000818152600e855260408082209490945583860151928b16808252908490209290925560608501518351908152925191939092600080516020615444833981519152929081900390910190a36080810151604080519182525130916001600160a01b038816916000805160206154448339815191529181900360200190a360a081015160e082015160408051308152602081019390935282810191909152517fa91e67c5ea634cd43a12c5a482724b03de01e85ca68702a53d0c2f45cb7c1dc59181900360600190a16000979650505050505050565b6000805460ff16613259576040805162461bcd60e51b815260206004820152600a6024820152691c994b595b9d195c995960b21b604482015290519081900360640190fd5b6000805460ff1916815561326b6118ac565b905080156132895761142581601081111561328257fe5b60086127ff565b61143633846144c9565b6000805460ff166132d8576040805162461bcd60e51b815260206004820152600a6024820152691c994b595b9d195c995960b21b604482015290519081900360640190fd5b6000805460ff191681556132ea6118ac565b9050801561330157611425816010811115612a0657fe5b61143633846000613b11565b60008054819060ff16613354576040805162461bcd60e51b815260206004820152600a6024820152691c994b595b9d195c995960b21b604482015290519081900360640190fd5b6000805460ff191681556133666118ac565b905080156133915761338481601081111561337d57fe5b600f6127ff565b9250600091506134289050565b836001600160a01b031663a6afed956040518163ffffffff1660e01b8152600401602060405180830381600087803b1580156133cc57600080fd5b505af11580156133e0573d6000803e3d6000fd5b505050506040513d60208110156133f657600080fd5b5051905080156134165761338481601081111561340f57fe5b60106127ff565b6134223387878761475d565b92509250505b6000805460ff191660011790559094909350915050565b60035460009061010090046001600160a01b031633146134655761120c600160476127ff565b61346d612acd565b600954146134815761120c600a60486127ff565b670de0b6b3a764000082111561349d5761120c600260496127ff565b6008805490839055604080518281526020810185905281517faaa68312e2ea9d50e16af5068410ab56e1a1fd06037b1a35664812c30f821460929181900390910190a16000611334565b60055460408051631200453160e11b81523060048201526001600160a01b0386811660248301528581166044830152606482018590529151600093849384939116916324008a629160848082019260209290919082900301818787803b15801561355057600080fd5b505af1158015613564573d6000803e3d6000fd5b505050506040513d602081101561357a57600080fd5b50519050801561359e576135916003603883612d52565b925060009150612e329050565b6135a6612acd565b600954146135ba57613591600a60396127ff565b6135c26151bb565b6001600160a01b03861660009081526010602052604090206001015460608201526135ec86612a19565b608083018190526020830182600381111561360357fe5b600381111561360e57fe5b905250600090508160200151600381111561362557fe5b1461364f576136416009603783602001516003811115611a9457fe5b935060009250612e32915050565b6000198514156136685760808101516040820152613670565b604081018590525b61367e878260400151614c4f565b60e08201819052608082015161369391612cc7565b60a08301819052602083018260038111156136aa57fe5b60038111156136b557fe5b90525060009050816020015160038111156136cc57fe5b146137085760405162461bcd60e51b815260040180806020018281038252603a81526020018061540a603a913960400191505060405180910390fd5b613718600b548260e00151612cc7565b60c083018190526020830182600381111561372f57fe5b600381111561373a57fe5b905250600090508160200151600381111561375157fe5b1461378d5760405162461bcd60e51b81526004018080602001828103825260318152602001806154646031913960400191505060405180910390fd5b60a080820180516001600160a01b03808a16600081815260106020908152604091829020948555600a5460019095019490945560c0870151600b81905560e088015195518251948f16855294840192909252828101949094526060820192909252608081019190915290517f1a2a22cb034d26d1854bdc6666a5b91fe25efbbb5dcad3b0355478d6f5c362a1929181900390910190a160e00151600097909650945050505050565b6000806000806138458787612db8565b9092509050600082600381111561385857fe5b146138695750915060009050612e32565b612e2b8186612cc7565b600061387d6150dd565b60008061389286670de0b6b3a7640000613fd8565b909250905060008260038111156138a557fe5b146138c4575060408051602081019091526000815290925090506126e4565b6000806138d18388614017565b909250905060008260038111156138e457fe5b14613906575060408051602081019091526000815290945092506126e4915050565b604080516020810190915290815260009890975095505050505050565b51670de0b6b3a7640000900490565b600080600080613940612acd565b6009541461395f57613954600a604f6127ff565b93509150612ac89050565b6139693386614c4f565b905080600c54019150600c548210156139c9576040805162461bcd60e51b815260206004820181905260248201527f61646420726573657276657320756e6578706563746564206f766572666c6f77604482015290519081900360640190fd5b600c829055604080513381526020810183905280820184905290517fa91e67c5ea634cd43a12c5a482724b03de01e85ca68702a53d0c2f45cb7c1dc59181900360600190a160009350915050915091565b6011546040805163a9059cbb60e01b81526001600160a01b0385811660048301526024820185905291519190921691829163a9059cbb9160448082019260009290919082900301818387803b158015613a7257600080fd5b505af1158015613a86573d6000803e3d6000fd5b5050505060003d60008114613aa25760208114613aac57600080fd5b6000199150613ab8565b60206000803e60005191505b5080613b0b576040805162461bcd60e51b815260206004820152601960248201527f544f4b454e5f5452414e534645525f4f55545f4641494c454400000000000000604482015290519081900360640190fd5b50505050565b6000821580613b1e575081155b613b595760405162461bcd60e51b81526004018080602001828103825260348152602001806155256034913960400191505060405180910390fd5b613b61615201565b613b696122b1565b6040830181905260208301826003811115613b8057fe5b6003811115613b8b57fe5b9052506000905081602001516003811115613ba257fe5b14613bc657613bbe6009602b83602001516003811115611a9457fe5b915050611334565b8315613c47576060810184905260408051602081018252908201518152613bed9085612697565b6080830181905260208301826003811115613c0457fe5b6003811115613c0f57fe5b9052506000905081602001516003811115613c2657fe5b14613c4257613bbe6009602983602001516003811115611a9457fe5b613cc0565b613c638360405180602001604052808460400151815250614e99565b6060830181905260208301826003811115613c7a57fe5b6003811115613c8557fe5b9052506000905081602001516003811115613c9c57fe5b14613cb857613bbe6009602a83602001516003811115611a9457fe5b608081018390525b60055460608201516040805163eabe7d9160e01b81523060048201526001600160a01b03898116602483015260448201939093529051600093929092169163eabe7d919160648082019260209290919082900301818787803b158015613d2557600080fd5b505af1158015613d39573d6000803e3d6000fd5b505050506040513d6020811015613d4f57600080fd5b505190508015613d6f57613d666003602883612d52565b92505050611334565b613d77612acd565b60095414613d8b57613d66600a602c6127ff565b613d9b600d548360600151612cc7565b60a0840181905260208401826003811115613db257fe5b6003811115613dbd57fe5b9052506000905082602001516003811115613dd457fe5b14613df057613d666009602e84602001516003811115611a9457fe5b6001600160a01b0386166000908152600e60205260409020546060830151613e189190612cc7565b60c0840181905260208401826003811115613e2f57fe5b6003811115613e3a57fe5b9052506000905082602001516003811115613e5157fe5b14613e6d57613d666009602d84602001516003811115611a9457fe5b8160800151613e7a6126eb565b1015613e8c57613d66600e602f6127ff565b613e9a868360800151613a1a565b60a0820151600d5560c08201516001600160a01b0387166000818152600e6020908152604091829020939093556060850151815190815290513093600080516020615444833981519152928290030190a36080820151606080840151604080516001600160a01b038b168152602081019490945283810191909152517fe5b754fb1abb7f01b499791d0b820ae3b6af3424ac1c59768edb53f4ec31a9299281900390910190a160055460808301516060840151604080516351dff98960e01b81523060048201526001600160a01b038b81166024830152604482019490945260648101929092525191909216916351dff98991608480830192600092919082900301818387803b158015613fad57600080fd5b505af1158015613fc1573d6000803e3d6000fd5b5060009250613fce915050565b9695505050505050565b60008083613feb575060009050806126e4565b83830283858281613ff857fe5b041461400c575060029150600090506126e4565b6000925090506126e4565b6000808261402b57506001905060006126e4565b600083858161403657fe5b04915091509250929050565b60055460408051634ef4c3e160e01b81523060048201526001600160a01b03858116602483015260448201859052915160009384938493911691634ef4c3e19160648082019260209290919082900301818787803b1580156140a357600080fd5b505af11580156140b7573d6000803e3d6000fd5b505050506040513d60208110156140cd57600080fd5b5051905080156140f1576140e46003601f83612d52565b9250600091506126e49050565b6140f9612acd565b6009541461410d576140e4600a60226127ff565b614115615201565b61411d6122b1565b604083018190526020830182600381111561413457fe5b600381111561413f57fe5b905250600090508160200151600381111561415657fe5b14614180576141726009602183602001516003811115611a9457fe5b9350600092506126e4915050565b61418a8686614c4f565b60c08201819052604080516020810182529083015181526141ab9190614e99565b60608301819052602083018260038111156141c257fe5b60038111156141cd57fe5b90525060009050816020015160038111156141e457fe5b14614236576040805162461bcd60e51b815260206004820181905260248201527f4d494e545f45584348414e47455f43414c43554c4154494f4e5f4641494c4544604482015290519081900360640190fd5b614246600d548260600151612db8565b608083018190526020830182600381111561425d57fe5b600381111561426857fe5b905250600090508160200151600381111561427f57fe5b146142bb5760405162461bcd60e51b81526004018080602001828103825260288152602001806154fd6028913960400191505060405180910390fd5b6001600160a01b0386166000908152600e602052604090205460608201516142e39190612db8565b60a08301819052602083018260038111156142fa57fe5b600381111561430557fe5b905250600090508160200151600381111561431c57fe5b146143585760405162461bcd60e51b815260040180806020018281038252602b8152602001806153a8602b913960400191505060405180910390fd5b6080810151600d5560a08101516001600160a01b0387166000818152600e60209081526040918290209390935560c084015160608086015183519485529484019190915282820193909352517f4c209b5fc8ad50758f13e2e1088ba56a560dff690a1c6fef26394f4c03821c4f929181900390910190a1606081015160408051918252516001600160a01b0388169130916000805160206154448339815191529181900360200190a360c001516000969095509350505050565b6000670de0b6b3a764000061442b848460000151614eb0565b8161443257fe5b049392505050565b60006113348383604051806040016040528060158152602001747375627472616374696f6e20756e646572666c6f7760581b815250614ef2565b600061447e6150dd565b6144888484614f89565b90506111c481613923565b60006113348383604051806040016040528060118152602001706164646974696f6e206f766572666c6f7760781b815250614fb3565b6005546040805163368f515360e21b81523060048201526001600160a01b0385811660248301526044820185905291516000938493169163da3d454c91606480830192602092919082900301818787803b15801561452657600080fd5b505af115801561453a573d6000803e3d6000fd5b505050506040513d602081101561455057600080fd5b50519050801561456f576145676003600e83612d52565b915050610d00565b614577612acd565b6009541461458a57614567600a806127ff565b826145936126eb565b10156145a557614567600e60096127ff565b6145ad61523f565b6145b685612a19565b60208301819052828260038111156145ca57fe5b60038111156145d557fe5b90525060009050815160038111156145e957fe5b1461460e576146056009600783600001516003811115611a9457fe5b92505050610d00565b61461c816020015185612db8565b604083018190528282600381111561463057fe5b600381111561463b57fe5b905250600090508151600381111561464f57fe5b1461466b576146056009600c83600001516003811115611a9457fe5b614677600b5485612db8565b606083018190528282600381111561468b57fe5b600381111561469657fe5b90525060009050815160038111156146aa57fe5b146146c6576146056009600b83600001516003811115611a9457fe5b6146d08585613a1a565b604080820180516001600160a01b03881660008181526010602090815290859020928355600a54600190930192909255606080860151600b81905593518551928352928201899052818501929092529081019190915290517f13ed6866d4e1ee6da46f845c46d7e54120883d75c5ea9a2dacc1c4ca8984ab809181900360800190a1600095945050505050565b60055460408051632fe3f38f60e11b81523060048201526001600160a01b0384811660248301528781166044830152868116606483015260848201869052915160009384938493911691635fc7e71e9160a48082019260209290919082900301818787803b1580156147ce57600080fd5b505af11580156147e2573d6000803e3d6000fd5b505050506040513d60208110156147f857600080fd5b50519050801561481c5761480f6003601283612d52565b925060009150614c469050565b614824612acd565b600954146148385761480f600a60166127ff565b614840612acd565b846001600160a01b0316636c540baf6040518163ffffffff1660e01b815260040160206040518083038186803b15801561487957600080fd5b505afa15801561488d573d6000803e3d6000fd5b505050506040513d60208110156148a357600080fd5b5051146148b65761480f600a60116127ff565b866001600160a01b0316866001600160a01b031614156148dc5761480f600660176127ff565b846148ed5761480f600760156127ff565b6000198514156149035761480f600760146127ff565b6000806149118989896134e7565b909250905081156149415761493282601081111561492b57fe5b60186127ff565b945060009350614c4692505050565b6005546040805163c488847b60e01b81523060048201526001600160a01b038981166024830152604482018590528251600094859492169263c488847b926064808301939192829003018186803b15801561499b57600080fd5b505afa1580156149af573d6000803e3d6000fd5b505050506040513d60408110156149c557600080fd5b50805160209091015190925090508115614a105760405162461bcd60e51b81526004018080602001828103825260338152602001806154956033913960400191505060405180910390fd5b80886001600160a01b03166370a082318c6040518263ffffffff1660e01b815260040180826001600160a01b03166001600160a01b0316815260200191505060206040518083038186803b158015614a6757600080fd5b505afa158015614a7b573d6000803e3d6000fd5b505050506040513d6020811015614a9157600080fd5b50511015614ae6576040805162461bcd60e51b815260206004820152601860248201527f4c49515549444154455f5345495a455f544f4f5f4d5543480000000000000000604482015290519081900360640190fd5b60006001600160a01b038916301415614b0c57614b05308d8d85612e3a565b9050614b96565b6040805163b2a02ff160e01b81526001600160a01b038e811660048301528d81166024830152604482018590529151918b169163b2a02ff1916064808201926020929091908290030181600087803b158015614b6757600080fd5b505af1158015614b7b573d6000803e3d6000fd5b505050506040513d6020811015614b9157600080fd5b505190505b8015614be0576040805162461bcd60e51b81526020600482015260146024820152731d1bdad95b881cd95a5e9d5c994819985a5b195960621b604482015290519081900360640190fd5b604080516001600160a01b03808f168252808e1660208301528183018790528b1660608201526080810184905290517f298637f684da70674f26509b10f07ec2fbc77a335ab1e7d6215a4b2484d8bb529181900360a00190a16000975092955050505050505b94509492505050565b601154604080516370a0823160e01b815230600482015290516000926001600160a01b031691839183916370a08231916024808301926020929190829003018186803b158015614c9e57600080fd5b505afa158015614cb2573d6000803e3d6000fd5b505050506040513d6020811015614cc857600080fd5b5051604080516323b872dd60e01b81526001600160a01b038881166004830152306024830152604482018890529151929350908416916323b872dd9160648082019260009290919082900301818387803b158015614d2557600080fd5b505af1158015614d39573d6000803e3d6000fd5b5050505060003d60008114614d555760208114614d5f57600080fd5b6000199150614d6b565b60206000803e60005191505b5080614dbe576040805162461bcd60e51b815260206004820152601860248201527f544f4b454e5f5452414e534645525f494e5f4641494c45440000000000000000604482015290519081900360640190fd5b601154604080516370a0823160e01b815230600482015290516000926001600160a01b0316916370a08231916024808301926020929190829003018186803b158015614e0957600080fd5b505afa158015614e1d573d6000803e3d6000fd5b505050506040513d6020811015614e3357600080fd5b5051905082811015614e8c576040805162461bcd60e51b815260206004820152601a60248201527f544f4b454e5f5452414e534645525f494e5f4f564552464c4f57000000000000604482015290519081900360640190fd5b9190910395945050505050565b6000806000614ea66150dd565b6126ae8686615008565b600061133483836040518060400160405280601781526020017f6d756c7469706c69636174696f6e206f766572666c6f77000000000000000000815250615067565b60008184841115614f815760405162461bcd60e51b81526004018080602001828103825283818151815260200191508051906020019080838360005b83811015614f46578181015183820152602001614f2e565b50505050905090810190601f168015614f735780820380516001836020036101000a031916815260200191505b509250505060405180910390fd5b505050900390565b614f916150dd565b6040518060200160405280614faa856000015185614eb0565b90529392505050565b600083830182858210156110f55760405162461bcd60e51b8152602060048201818152835160248401528351909283926044909101919085019080838360008315614f46578181015183820152602001614f2e565b60006150126150dd565b600080615027670de0b6b3a764000087613fd8565b9092509050600082600381111561503a57fe5b14615059575060408051602081019091526000815290925090506126e4565b6126dd818660000151613873565b6000831580615074575082155b1561508157506000611334565b8383028385828161508e57fe5b041483906110f55760405162461bcd60e51b8152602060048201818152835160248401528351909283926044909101919085019080838360008315614f46578181015183820152602001614f2e565b6040518060200160405280600081525090565b828054600181600116156101000203166002900490600052602060002090601f016020900481019282601f1061513157805160ff191683800117855561515e565b8280016001018555821561515e579182015b8281111561515e578251825591602001919060010190615143565b5061516a929150615268565b5090565b604080516101208101909152806000815260200160008152602001600081526020016000815260200160008152602001600081526020016000815260200160008152602001600081525090565b6040805161010081019091528060008152602001600081526020016000815260200160008152602001600081526020016000815260200160008152602001600081525090565b6040805160e0810190915280600081526020016000815260200160008152602001600081526020016000815260200160008152602001600081525090565b604080516080810190915280600081526020016000815260200160008152602001600081525090565b610e9891905b8082111561516a576000815560010161526e56fe6f6e6c792061646d696e206d617920696e697469616c697a6520746865206d61726b65746d61726b6574206d6179206f6e6c7920626520696e697469616c697a6564206f6e63654345726332303a3a7377656570546f6b656e3a2063616e206e6f7420737765657020756e6465726c79696e6720746f6b656e696e697469616c2065786368616e67652072617465206d7573742062652067726561746572207468616e207a65726f2e6f6e6c79207468652061646d696e206d6179207365742074686520636f6d702d6c696b652064656c656761746573657474696e6720696e7465726573742072617465206d6f64656c206661696c65646f6e6c79207468652061646d696e206d61792063616c6c205f72657369676e496d706c656d656e746174696f6e4d494e545f4e45575f4143434f554e545f42414c414e43455f43414c43554c4154494f4e5f4641494c4544626f72726f7742616c616e636553746f7265643a20626f72726f7742616c616e636553746f726564496e7465726e616c206661696c656452455041595f424f52524f575f4e45575f4143434f554e545f424f52524f575f42414c414e43455f43414c43554c4154494f4e5f4641494c4544ddf252ad1be2c89b69c2b068fc378daa952ba7f163c4a11628f55a4df523b3ef52455041595f424f52524f575f4e45575f544f54414c5f42414c414e43455f43414c43554c4154494f4e5f4641494c45444c49515549444154455f434f4d5054524f4c4c45525f43414c43554c4154455f414d4f554e545f5345495a455f4641494c454465786368616e67655261746553746f7265643a2065786368616e67655261746553746f726564496e7465726e616c206661696c65644d494e545f4e45575f544f54414c5f535550504c595f43414c43554c4154494f4e5f4641494c45446f6e65206f662072656465656d546f6b656e73496e206f722072656465656d416d6f756e74496e206d757374206265207a65726f72656475636520726573657276657320756e657870656374656420756e646572666c6f776f6e6c79207468652061646d696e206d61792063616c6c205f6265636f6d65496d706c656d656e746174696f6ea265627a7a723158201c1cfad51f6f2af667edb14c0dc25e280738e526e4e130241ff1e2b18e5c5b6964736f6c63430005100032",
  "devdoc": {
    "author": "Compound",
    "methods": {
      "_acceptAdmin()": {
        "details": "Admin function for pending admin to accept role and update admin",
        "return": "uint 0=success, otherwise a failure (see ErrorReporter.sol for details)"
      },
      "_addReserves(uint256)": {
        "params": {
          "addAmount": "The amount fo underlying token to add as reserves"
        },
        "return": "uint 0=success, otherwise a failure (see ErrorReporter.sol for details)"
      },
      "_becomeImplementation(bytes)": {
        "params": {
          "data": "The encoded bytes data for any initialization"
        }
      },
      "_delegateCompLikeTo(address)": {
        "details": "CTokens whose underlying are not CompLike should revert here",
        "params": {
          "compLikeDelegatee": "The address to delegate votes to"
        }
      },
      "_reduceReserves(uint256)": {
        "params": {
          "reduceAmount": "Amount of reduction to reserves"
        },
        "return": "uint 0=success, otherwise a failure (see ErrorReporter.sol for details)"
      },
      "_setComptroller(address)": {
        "details": "Admin function to set a new comptroller",
        "return": "uint 0=success, otherwise a failure (see ErrorReporter.sol for details)"
      },
      "_setInterestRateModel(address)": {
        "details": "Admin function to accrue interest and update the interest rate model",
        "params": {
          "newInterestRateModel": "the new interest rate model to use"
        },
        "return": "uint 0=success, otherwise a failure (see ErrorReporter.sol for details)"
      },
      "_setPendingAdmin(address)": {
        "details": "Admin function to begin change of admin. The newPendingAdmin must call `_acceptAdmin` to finalize the transfer.",
        "params": {
          "newPendingAdmin": "New pending admin."
        },
        "return": "uint 0=success, otherwise a failure (see ErrorReporter.sol for details)"
      },
      "_setReserveFactor(uint256)": {
        "details": "Admin function to accrue interest and set a new reserve factor",
        "return": "uint 0=success, otherwise a failure (see ErrorReporter.sol for details)"
      },
      "accrueInterest()": {
        "details": "This calculates interest accrued from the last checkpointed block  up to the current block and writes new checkpoint to storage."
      },
      "allowance(address,address)": {
        "params": {
          "owner": "The address of the account which owns the tokens to be spent",
          "spender": "The address of the account which may transfer tokens"
        },
        "return": "The number of tokens allowed to be spent (-1 means infinite)"
      },
      "approve(address,uint256)": {
        "details": "This will overwrite the approval amount for `spender` and is subject to issues noted [here](https://eips.ethereum.org/EIPS/eip-20#approve)",
        "params": {
          "amount": "The number of tokens that are approved (-1 means infinite)",
          "spender": "The address of the account which may transfer tokens"
        },
        "return": "Whether or not the approval succeeded"
      },
      "balanceOf(address)": {
        "params": {
          "owner": "The address of the account to query"
        },
        "return": "The number of tokens owned by `owner`"
      },
      "balanceOfUnderlying(address)": {
        "details": "This also accrues interest in a transaction",
        "params": {
          "owner": "The address of the account to query"
        },
        "return": "The amount of underlying owned by `owner`"
      },
      "borrow(uint256)": {
        "params": {
          "borrowAmount": "The amount of the underlying asset to borrow"
        },
        "return": "uint 0=success, otherwise a failure (see ErrorReporter.sol for details)"
      },
      "borrowBalanceCurrent(address)": {
        "params": {
          "account": "The address whose balance should be calculated after updating borrowIndex"
        },
        "return": "The calculated balance"
      },
      "borrowBalanceStored(address)": {
        "params": {
          "account": "The address whose balance should be calculated"
        },
        "return": "The calculated balance"
      },
      "borrowRatePerBlock()": {
        "return": "The borrow interest rate per block, scaled by 1e18"
      },
      "exchangeRateCurrent()": {
        "return": "Calculated exchange rate scaled by 1e18"
      },
      "exchangeRateStored()": {
        "details": "This function does not accrue interest before calculating the exchange rate",
        "return": "Calculated exchange rate scaled by 1e18"
      },
      "getAccountSnapshot(address)": {
        "details": "This is used by comptroller to more efficiently perform liquidity checks.",
        "params": {
          "account": "Address of the account to snapshot"
        },
        "return": "(possible error, token balance, borrow balance, exchange rate mantissa)"
      },
      "getCash()": {
        "return": "The quantity of underlying asset owned by this contract"
      },
      "initialize(address,address,address,uint256,string,string,uint8)": {
        "params": {
          "comptroller_": "The address of the Comptroller",
          "decimals_": "ERC-20 decimal precision of this token",
          "initialExchangeRateMantissa_": "The initial exchange rate, scaled by 1e18",
          "interestRateModel_": "The address of the interest rate model",
          "name_": "ERC-20 name of this token",
          "symbol_": "ERC-20 symbol of this token",
          "underlying_": "The address of the underlying asset"
        }
      },
      "initialize(address,address,uint256,string,string,uint8)": {
        "params": {
          "comptroller_": "The address of the Comptroller",
          "decimals_": "EIP-20 decimal precision of this token",
          "initialExchangeRateMantissa_": "The initial exchange rate, scaled by 1e18",
          "interestRateModel_": "The address of the interest rate model",
          "name_": "EIP-20 name of this token",
          "symbol_": "EIP-20 symbol of this token"
        }
      },
      "liquidateBorrow(address,uint256,address)": {
        "params": {
          "borrower": "The borrower of this cToken to be liquidated",
          "cTokenCollateral": "The market in which to seize collateral from the borrower",
          "repayAmount": "The amount of the underlying borrowed asset to repay"
        },
        "return": "uint 0=success, otherwise a failure (see ErrorReporter.sol for details)"
      },
      "mint(uint256)": {
        "details": "Accrues interest whether or not the operation succeeds, unless reverted",
        "params": {
          "mintAmount": "The amount of the underlying asset to supply"
        },
        "return": "uint 0=success, otherwise a failure (see ErrorReporter.sol for details)"
      },
      "redeem(uint256)": {
        "details": "Accrues interest whether or not the operation succeeds, unless reverted",
        "params": {
          "redeemTokens": "The number of cTokens to redeem into underlying"
        },
        "return": "uint 0=success, otherwise a failure (see ErrorReporter.sol for details)"
      },
      "redeemUnderlying(uint256)": {
        "details": "Accrues interest whether or not the operation succeeds, unless reverted",
        "params": {
          "redeemAmount": "The amount of underlying to redeem"
        },
        "return": "uint 0=success, otherwise a failure (see ErrorReporter.sol for details)"
      },
      "repayBorrow(uint256)": {
        "params": {
          "repayAmount": "The amount to repay"
        },
        "return": "uint 0=success, otherwise a failure (see ErrorReporter.sol for details)"
      },
      "repayBorrowBehalf(address,uint256)": {
        "params": {
          "borrower": "the account with the debt being payed off",
          "repayAmount": "The amount to repay"
        },
        "return": "uint 0=success, otherwise a failure (see ErrorReporter.sol for details)"
      },
      "seize(address,address,uint256)": {
        "details": "Will fail unless called by another cToken during the process of liquidation. Its absolutely critical to use msg.sender as the borrowed cToken and not a parameter.",
        "params": {
          "borrower": "The account having collateral seized",
          "liquidator": "The account receiving seized collateral",
          "seizeTokens": "The number of cTokens to seize"
        },
        "return": "uint 0=success, otherwise a failure (see ErrorReporter.sol for details)"
      },
      "supplyRatePerBlock()": {
        "return": "The supply interest rate per block, scaled by 1e18"
      },
      "sweepToken(address)": {
        "params": {
          "token": "The address of the ERC-20 token to sweep"
        }
      },
      "totalBorrowsCurrent()": {
        "return": "The total borrows with interest"
      },
      "transfer(address,uint256)": {
        "params": {
          "amount": "The number of tokens to transfer",
          "dst": "The address of the destination account"
        },
        "return": "Whether or not the transfer succeeded"
      },
      "transferFrom(address,address,uint256)": {
        "params": {
          "amount": "The number of tokens to transfer",
          "dst": "The address of the destination account",
          "src": "The address of the source account"
        },
        "return": "Whether or not the transfer succeeded"
      }
    },
    "title": "Compound's CErc20Delegate Contract"
  },
  "userdoc": {
    "methods": {
      "_acceptAdmin()": {
        "notice": "Accepts transfer of admin rights. msg.sender must be pendingAdmin"
      },
      "_addReserves(uint256)": {
        "notice": "The sender adds to reserves."
      },
      "_becomeImplementation(bytes)": {
        "notice": "Called by the delegator on a delegate to initialize it for duty"
      },
      "_delegateCompLikeTo(address)": {
        "notice": "Admin call to delegate the votes of the COMP-like underlying"
      },
      "_reduceReserves(uint256)": {
        "notice": "Accrues interest and reduces reserves by transferring to admin"
      },
      "_resignImplementation()": {
        "notice": "Called by the delegator on a delegate to forfeit its responsibility"
      },
      "_setComptroller(address)": {
        "notice": "Sets a new comptroller for the market"
      },
      "_setInterestRateModel(address)": {
        "notice": "accrues interest and updates the interest rate model using _setInterestRateModelFresh"
      },
      "_setPendingAdmin(address)": {
        "notice": "Begins transfer of admin rights. The newPendingAdmin must call `_acceptAdmin` to finalize the transfer."
      },
      "_setReserveFactor(uint256)": {
        "notice": "accrues interest and sets a new reserve factor for the protocol using _setReserveFactorFresh"
      },
      "accrueInterest()": {
        "notice": "Applies accrued interest to total borrows and reserves"
      },
      "allowance(address,address)": {
        "notice": "Get the current allowance from `owner` for `spender`"
      },
      "approve(address,uint256)": {
        "notice": "Approve `spender` to transfer up to `amount` from `src`"
      },
      "balanceOf(address)": {
        "notice": "Get the token balance of the `owner`"
      },
      "balanceOfUnderlying(address)": {
        "notice": "Get the underlying balance of the `owner`"
      },
      "borrow(uint256)": {
        "notice": "Sender borrows assets from the protocol to their own address"
      },
      "borrowBalanceCurrent(address)": {
        "notice": "Accrue interest to updated borrowIndex and then calculate account's borrow balance using the updated borrowIndex"
      },
      "borrowBalanceStored(address)": {
        "notice": "Return the borrow balance of account based on stored data"
      },
      "borrowRatePerBlock()": {
        "notice": "Returns the current per-block borrow interest rate for this cToken"
      },
      "constructor": "Construct an empty delegate",
      "exchangeRateCurrent()": {
        "notice": "Accrue interest then return the up-to-date exchange rate"
      },
      "exchangeRateStored()": {
        "notice": "Calculates the exchange rate from the underlying to the CToken"
      },
      "getAccountSnapshot(address)": {
        "notice": "Get a snapshot of the account's balances, and the cached exchange rate"
      },
      "getCash()": {
        "notice": "Get cash balance of this cToken in the underlying asset"
      },
      "initialize(address,address,address,uint256,string,string,uint8)": {
        "notice": "Initialize the new money market"
      },
      "initialize(address,address,uint256,string,string,uint8)": {
        "notice": "Initialize the money market"
      },
      "liquidateBorrow(address,uint256,address)": {
        "notice": "The sender liquidates the borrowers collateral. The collateral seized is transferred to the liquidator."
      },
      "mint(uint256)": {
        "notice": "Sender supplies assets into the market and receives cTokens in exchange"
      },
      "redeem(uint256)": {
        "notice": "Sender redeems cTokens in exchange for the underlying asset"
      },
      "redeemUnderlying(uint256)": {
        "notice": "Sender redeems cTokens in exchange for a specified amount of underlying asset"
      },
      "repayBorrow(uint256)": {
        "notice": "Sender repays their own borrow"
      },
      "repayBorrowBehalf(address,uint256)": {
        "notice": "Sender repays a borrow belonging to borrower"
      },
      "seize(address,address,uint256)": {
        "notice": "Transfers collateral tokens (this market) to the liquidator."
      },
      "supplyRatePerBlock()": {
        "notice": "Returns the current per-block supply interest rate for this cToken"
      },
      "sweepToken(address)": {
        "notice": "A public function to sweep accidental ERC-20 transfers to this contract. Tokens are sent to admin (timelock)"
      },
      "totalBorrowsCurrent()": {
        "notice": "Returns the current total borrows plus accrued interest"
      },
      "transfer(address,uint256)": {
        "notice": "Transfer `amount` tokens from `msg.sender` to `dst`"
      },
      "transferFrom(address,address,uint256)": {
        "notice": "Transfer `amount` tokens from `src` to `dst`"
      }
    },
    "notice": "CTokens which wrap an EIP-20 underlying and are delegated to"
  },
  "storageLayout": {
    "storage": [
      {
        "astId": 6221,
        "contract": "contracts/CErc20Delegate.sol:CErc20Delegate",
        "label": "_notEntered",
        "offset": 0,
        "slot": "0",
        "type": "t_bool"
      },
      {
        "astId": 6223,
        "contract": "contracts/CErc20Delegate.sol:CErc20Delegate",
        "label": "name",
        "offset": 0,
        "slot": "1",
        "type": "t_string_storage"
      },
      {
        "astId": 6225,
        "contract": "contracts/CErc20Delegate.sol:CErc20Delegate",
        "label": "symbol",
        "offset": 0,
        "slot": "2",
        "type": "t_string_storage"
      },
      {
        "astId": 6227,
        "contract": "contracts/CErc20Delegate.sol:CErc20Delegate",
        "label": "decimals",
        "offset": 0,
        "slot": "3",
        "type": "t_uint8"
      },
      {
        "astId": 6235,
        "contract": "contracts/CErc20Delegate.sol:CErc20Delegate",
        "label": "admin",
        "offset": 1,
        "slot": "3",
        "type": "t_address_payable"
      },
      {
        "astId": 6237,
        "contract": "contracts/CErc20Delegate.sol:CErc20Delegate",
        "label": "pendingAdmin",
        "offset": 0,
        "slot": "4",
        "type": "t_address_payable"
      },
      {
        "astId": 6239,
        "contract": "contracts/CErc20Delegate.sol:CErc20Delegate",
        "label": "comptroller",
        "offset": 0,
        "slot": "5",
        "type": "t_contract(ComptrollerInterface)34309"
      },
      {
        "astId": 6241,
        "contract": "contracts/CErc20Delegate.sol:CErc20Delegate",
        "label": "interestRateModel",
        "offset": 0,
        "slot": "6",
        "type": "t_contract(InterestRateModel)38619"
      },
      {
        "astId": 6243,
        "contract": "contracts/CErc20Delegate.sol:CErc20Delegate",
        "label": "initialExchangeRateMantissa",
        "offset": 0,
        "slot": "7",
        "type": "t_uint256"
      },
      {
        "astId": 6245,
        "contract": "contracts/CErc20Delegate.sol:CErc20Delegate",
        "label": "reserveFactorMantissa",
        "offset": 0,
        "slot": "8",
        "type": "t_uint256"
      },
      {
        "astId": 6247,
        "contract": "contracts/CErc20Delegate.sol:CErc20Delegate",
        "label": "accrualBlockNumber",
        "offset": 0,
        "slot": "9",
        "type": "t_uint256"
      },
      {
        "astId": 6249,
        "contract": "contracts/CErc20Delegate.sol:CErc20Delegate",
        "label": "borrowIndex",
        "offset": 0,
        "slot": "10",
        "type": "t_uint256"
      },
      {
        "astId": 6251,
        "contract": "contracts/CErc20Delegate.sol:CErc20Delegate",
        "label": "totalBorrows",
        "offset": 0,
        "slot": "11",
        "type": "t_uint256"
      },
      {
        "astId": 6253,
        "contract": "contracts/CErc20Delegate.sol:CErc20Delegate",
        "label": "totalReserves",
        "offset": 0,
        "slot": "12",
        "type": "t_uint256"
      },
      {
        "astId": 6255,
        "contract": "contracts/CErc20Delegate.sol:CErc20Delegate",
        "label": "totalSupply",
        "offset": 0,
        "slot": "13",
        "type": "t_uint256"
      },
      {
        "astId": 6259,
        "contract": "contracts/CErc20Delegate.sol:CErc20Delegate",
        "label": "accountTokens",
        "offset": 0,
        "slot": "14",
        "type": "t_mapping(t_address,t_uint256)"
      },
      {
        "astId": 6265,
        "contract": "contracts/CErc20Delegate.sol:CErc20Delegate",
        "label": "transferAllowances",
        "offset": 0,
        "slot": "15",
        "type": "t_mapping(t_address,t_mapping(t_address,t_uint256))"
      },
      {
        "astId": 6274,
        "contract": "contracts/CErc20Delegate.sol:CErc20Delegate",
        "label": "accountBorrows",
        "offset": 0,
        "slot": "16",
        "type": "t_mapping(t_address,t_struct(BorrowSnapshot)6270_storage)"
      },
      {
        "astId": 6581,
        "contract": "contracts/CErc20Delegate.sol:CErc20Delegate",
        "label": "underlying",
        "offset": 0,
        "slot": "17",
        "type": "t_address"
      },
      {
        "astId": 6654,
        "contract": "contracts/CErc20Delegate.sol:CErc20Delegate",
        "label": "implementation",
        "offset": 0,
        "slot": "18",
        "type": "t_address"
      }
    ],
    "types": {
      "t_address": {
        "encoding": "inplace",
        "label": "address",
        "numberOfBytes": "20"
      },
      "t_address_payable": {
        "encoding": "inplace",
        "label": "address payable",
        "numberOfBytes": "20"
      },
      "t_bool": {
        "encoding": "inplace",
        "label": "bool",
        "numberOfBytes": "1"
      },
      "t_contract(ComptrollerInterface)34309": {
        "encoding": "inplace",
        "label": "contract ComptrollerInterface",
        "numberOfBytes": "20"
      },
      "t_contract(InterestRateModel)38619": {
        "encoding": "inplace",
        "label": "contract InterestRateModel",
        "numberOfBytes": "20"
      },
      "t_mapping(t_address,t_mapping(t_address,t_uint256))": {
        "encoding": "mapping",
        "key": "t_address",
        "label": "mapping(address => mapping(address => uint256))",
        "numberOfBytes": "32",
        "value": "t_mapping(t_address,t_uint256)"
      },
      "t_mapping(t_address,t_struct(BorrowSnapshot)6270_storage)": {
        "encoding": "mapping",
        "key": "t_address",
        "label": "mapping(address => struct CTokenStorage.BorrowSnapshot)",
        "numberOfBytes": "32",
        "value": "t_struct(BorrowSnapshot)6270_storage"
      },
      "t_mapping(t_address,t_uint256)": {
        "encoding": "mapping",
        "key": "t_address",
        "label": "mapping(address => uint256)",
        "numberOfBytes": "32",
        "value": "t_uint256"
      },
      "t_string_storage": {
        "encoding": "bytes",
        "label": "string",
        "numberOfBytes": "32"
      },
      "t_struct(BorrowSnapshot)6270_storage": {
        "encoding": "inplace",
        "label": "struct CTokenStorage.BorrowSnapshot",
        "members": [
          {
            "astId": 6267,
            "contract": "contracts/CErc20Delegate.sol:CErc20Delegate",
            "label": "principal",
            "offset": 0,
            "slot": "0",
            "type": "t_uint256"
          },
          {
            "astId": 6269,
            "contract": "contracts/CErc20Delegate.sol:CErc20Delegate",
            "label": "interestIndex",
            "offset": 0,
            "slot": "1",
            "type": "t_uint256"
          }
        ],
        "numberOfBytes": "64"
      },
      "t_uint256": {
        "encoding": "inplace",
        "label": "uint256",
        "numberOfBytes": "32"
      },
      "t_uint8": {
        "encoding": "inplace",
        "label": "uint8",
        "numberOfBytes": "1"
      }
    }
  }
}