{
  "address": "0x4A5DAD63b1FCd92F7D5067B0c647c6A46180DcE0",
  "abi": [
    {
      "inputs": [
        {
          "internalType": "contract ComptrollerInterface",
          "name": "comptroller_",
          "type": "address"
        },
        {
          "internalType": "contract InterestRateModel",
          "name": "interestRateModel_",
          "type": "address"
        },
        {
          "internalType": "uint256",
          "name": "initialExchangeRateMantissa_",
          "type": "uint256"
        },
        {
          "internalType": "string",
          "name": "name_",
          "type": "string"
        },
        {
          "internalType": "string",
          "name": "symbol_",
          "type": "string"
        },
        {
          "internalType": "uint8",
          "name": "decimals_",
          "type": "uint8"
        },
        {
          "internalType": "address payable",
          "name": "admin_",
          "type": "address"
        }
      ],
      "payable": false,
      "stateMutability": "nonpayable",
      "type": "constructor"
    },
    {
      "anonymous": false,
      "inputs": [
        {
          "indexed": false,
          "internalType": "uint256",
          "name": "cashPrior",
          "type": "uint256"
        },
        {
          "indexed": false,
          "internalType": "uint256",
          "name": "interestAccumulated",
          "type": "uint256"
        },
        {
          "indexed": false,
          "internalType": "uint256",
          "name": "borrowIndex",
          "type": "uint256"
        },
        {
          "indexed": false,
          "internalType": "uint256",
          "name": "totalBorrows",
          "type": "uint256"
        }
      ],
      "name": "AccrueInterest",
      "type": "event"
    },
    {
      "anonymous": false,
      "inputs": [
        {
          "indexed": true,
          "internalType": "address",
          "name": "owner",
          "type": "address"
        },
        {
          "indexed": true,
          "internalType": "address",
          "name": "spender",
          "type": "address"
        },
        {
          "indexed": false,
          "internalType": "uint256",
          "name": "amount",
          "type": "uint256"
        }
      ],
      "name": "Approval",
      "type": "event"
    },
    {
      "anonymous": false,
      "inputs": [
        {
          "indexed": false,
          "internalType": "address",
          "name": "borrower",
          "type": "address"
        },
        {
          "indexed": false,
          "internalType": "uint256",
          "name": "borrowAmount",
          "type": "uint256"
        },
        {
          "indexed": false,
          "internalType": "uint256",
          "name": "accountBorrows",
          "type": "uint256"
        },
        {
          "indexed": false,
          "internalType": "uint256",
          "name": "totalBorrows",
          "type": "uint256"
        }
      ],
      "name": "Borrow",
      "type": "event"
    },
    {
      "anonymous": false,
      "inputs": [
        {
          "indexed": false,
          "internalType": "uint256",
          "name": "error",
          "type": "uint256"
        },
        {
          "indexed": false,
          "internalType": "uint256",
          "name": "info",
          "type": "uint256"
        },
        {
          "indexed": false,
          "internalType": "uint256",
          "name": "detail",
          "type": "uint256"
        }
      ],
      "name": "Failure",
      "type": "event"
    },
    {
      "anonymous": false,
      "inputs": [
        {
          "indexed": false,
          "internalType": "address",
          "name": "liquidator",
          "type": "address"
        },
        {
          "indexed": false,
          "internalType": "address",
          "name": "borrower",
          "type": "address"
        },
        {
          "indexed": false,
          "internalType": "uint256",
          "name": "repayAmount",
          "type": "uint256"
        },
        {
          "indexed": false,
          "internalType": "address",
          "name": "cTokenCollateral",
          "type": "address"
        },
        {
          "indexed": false,
          "internalType": "uint256",
          "name": "seizeTokens",
          "type": "uint256"
        }
      ],
      "name": "LiquidateBorrow",
      "type": "event"
    },
    {
      "anonymous": false,
      "inputs": [
        {
          "indexed": false,
          "internalType": "address",
          "name": "minter",
          "type": "address"
        },
        {
          "indexed": false,
          "internalType": "uint256",
          "name": "mintAmount",
          "type": "uint256"
        },
        {
          "indexed": false,
          "internalType": "uint256",
          "name": "mintTokens",
          "type": "uint256"
        }
      ],
      "name": "Mint",
      "type": "event"
    },
    {
      "anonymous": false,
      "inputs": [
        {
          "indexed": false,
          "internalType": "address",
          "name": "oldAdmin",
          "type": "address"
        },
        {
          "indexed": false,
          "internalType": "address",
          "name": "newAdmin",
          "type": "address"
        }
      ],
      "name": "NewAdmin",
      "type": "event"
    },
    {
      "anonymous": false,
      "inputs": [
        {
          "indexed": false,
          "internalType": "contract ComptrollerInterface",
          "name": "oldComptroller",
          "type": "address"
        },
        {
          "indexed": false,
          "internalType": "contract ComptrollerInterface",
          "name": "newComptroller",
          "type": "address"
        }
      ],
      "name": "NewComptroller",
      "type": "event"
    },
    {
      "anonymous": false,
      "inputs": [
        {
          "indexed": false,
          "internalType": "contract InterestRateModel",
          "name": "oldInterestRateModel",
          "type": "address"
        },
        {
          "indexed": false,
          "internalType": "contract InterestRateModel",
          "name": "newInterestRateModel",
          "type": "address"
        }
      ],
      "name": "NewMarketInterestRateModel",
      "type": "event"
    },
    {
      "anonymous": false,
      "inputs": [
        {
          "indexed": false,
          "internalType": "address",
          "name": "oldPendingAdmin",
          "type": "address"
        },
        {
          "indexed": false,
          "internalType": "address",
          "name": "newPendingAdmin",
          "type": "address"
        }
      ],
      "name": "NewPendingAdmin",
      "type": "event"
    },
    {
      "anonymous": false,
      "inputs": [
        {
          "indexed": false,
          "internalType": "uint256",
          "name": "oldReserveFactorMantissa",
          "type": "uint256"
        },
        {
          "indexed": false,
          "internalType": "uint256",
          "name": "newReserveFactorMantissa",
          "type": "uint256"
        }
      ],
      "name": "NewReserveFactor",
      "type": "event"
    },
    {
      "anonymous": false,
      "inputs": [
        {
          "indexed": false,
          "internalType": "address",
          "name": "redeemer",
          "type": "address"
        },
        {
          "indexed": false,
          "internalType": "uint256",
          "name": "redeemAmount",
          "type": "uint256"
        },
        {
          "indexed": false,
          "internalType": "uint256",
          "name": "redeemTokens",
          "type": "uint256"
        }
      ],
      "name": "Redeem",
      "type": "event"
    },
    {
      "anonymous": false,
      "inputs": [
        {
          "indexed": false,
          "internalType": "address",
          "name": "payer",
          "type": "address"
        },
        {
          "indexed": false,
          "internalType": "address",
          "name": "borrower",
          "type": "address"
        },
        {
          "indexed": false,
          "internalType": "uint256",
          "name": "repayAmount",
          "type": "uint256"
        },
        {
          "indexed": false,
          "internalType": "uint256",
          "name": "accountBorrows",
          "type": "uint256"
        },
        {
          "indexed": false,
          "internalType": "uint256",
          "name": "totalBorrows",
          "type": "uint256"
        }
      ],
      "name": "RepayBorrow",
      "type": "event"
    },
    {
      "anonymous": false,
      "inputs": [
        {
          "indexed": false,
          "internalType": "address",
          "name": "benefactor",
          "type": "address"
        },
        {
          "indexed": false,
          "internalType": "uint256",
          "name": "addAmount",
          "type": "uint256"
        },
        {
          "indexed": false,
          "internalType": "uint256",
          "name": "newTotalReserves",
          "type": "uint256"
        }
      ],
      "name": "ReservesAdded",
      "type": "event"
    },
    {
      "anonymous": false,
      "inputs": [
        {
          "indexed": false,
          "internalType": "address",
          "name": "admin",
          "type": "address"
        },
        {
          "indexed": false,
          "internalType": "uint256",
          "name": "reduceAmount",
          "type": "uint256"
        },
        {
          "indexed": false,
          "internalType": "uint256",
          "name": "newTotalReserves",
          "type": "uint256"
        }
      ],
      "name": "ReservesReduced",
      "type": "event"
    },
    {
      "anonymous": false,
      "inputs": [
        {
          "indexed": true,
          "internalType": "address",
          "name": "from",
          "type": "address"
        },
        {
          "indexed": true,
          "internalType": "address",
          "name": "to",
          "type": "address"
        },
        {
          "indexed": false,
          "internalType": "uint256",
          "name": "amount",
          "type": "uint256"
        }
      ],
      "name": "Transfer",
      "type": "event"
    },
    {
      "payable": true,
      "stateMutability": "payable",
      "type": "fallback"
    },
    {
      "constant": false,
      "inputs": [],
      "name": "_acceptAdmin",
      "outputs": [
        {
          "internalType": "uint256",
          "name": "",
          "type": "uint256"
        }
      ],
      "payable": false,
      "stateMutability": "nonpayable",
      "type": "function"
    },
    {
      "constant": false,
      "inputs": [],
      "name": "_addReserves",
      "outputs": [
        {
          "internalType": "uint256",
          "name": "",
          "type": "uint256"
        }
      ],
      "payable": true,
      "stateMutability": "payable",
      "type": "function"
    },
    {
      "constant": false,
      "inputs": [
        {
          "internalType": "uint256",
          "name": "reduceAmount",
          "type": "uint256"
        }
      ],
      "name": "_reduceReserves",
      "outputs": [
        {
          "internalType": "uint256",
          "name": "",
          "type": "uint256"
        }
      ],
      "payable": false,
      "stateMutability": "nonpayable",
      "type": "function"
    },
    {
      "constant": false,
      "inputs": [
        {
          "internalType": "contract ComptrollerInterface",
          "name": "newComptroller",
          "type": "address"
        }
      ],
      "name": "_setComptroller",
      "outputs": [
        {
          "internalType": "uint256",
          "name": "",
          "type": "uint256"
        }
      ],
      "payable": false,
      "stateMutability": "nonpayable",
      "type": "function"
    },
    {
      "constant": false,
      "inputs": [
        {
          "internalType": "contract InterestRateModel",
          "name": "newInterestRateModel",
          "type": "address"
        }
      ],
      "name": "_setInterestRateModel",
      "outputs": [
        {
          "internalType": "uint256",
          "name": "",
          "type": "uint256"
        }
      ],
      "payable": false,
      "stateMutability": "nonpayable",
      "type": "function"
    },
    {
      "constant": false,
      "inputs": [
        {
          "internalType": "address payable",
          "name": "newPendingAdmin",
          "type": "address"
        }
      ],
      "name": "_setPendingAdmin",
      "outputs": [
        {
          "internalType": "uint256",
          "name": "",
          "type": "uint256"
        }
      ],
      "payable": false,
      "stateMutability": "nonpayable",
      "type": "function"
    },
    {
      "constant": false,
      "inputs": [
        {
          "internalType": "uint256",
          "name": "newReserveFactorMantissa",
          "type": "uint256"
        }
      ],
      "name": "_setReserveFactor",
      "outputs": [
        {
          "internalType": "uint256",
          "name": "",
          "type": "uint256"
        }
      ],
      "payable": false,
      "stateMutability": "nonpayable",
      "type": "function"
    },
    {
      "constant": true,
      "inputs": [],
      "name": "accrualBlockNumber",
      "outputs": [
        {
          "internalType": "uint256",
          "name": "",
          "type": "uint256"
        }
      ],
      "payable": false,
      "stateMutability": "view",
      "type": "function"
    },
    {
      "constant": false,
      "inputs": [],
      "name": "accrueInterest",
      "outputs": [
        {
          "internalType": "uint256",
          "name": "",
          "type": "uint256"
        }
      ],
      "payable": false,
      "stateMutability": "nonpayable",
      "type": "function"
    },
    {
      "constant": true,
      "inputs": [],
      "name": "admin",
      "outputs": [
        {
          "internalType": "address payable",
          "name": "",
          "type": "address"
        }
      ],
      "payable": false,
      "stateMutability": "view",
      "type": "function"
    },
    {
      "constant": true,
      "inputs": [
        {
          "internalType": "address",
          "name": "owner",
          "type": "address"
        },
        {
          "internalType": "address",
          "name": "spender",
          "type": "address"
        }
      ],
      "name": "allowance",
      "outputs": [
        {
          "internalType": "uint256",
          "name": "",
          "type": "uint256"
        }
      ],
      "payable": false,
      "stateMutability": "view",
      "type": "function"
    },
    {
      "constant": false,
      "inputs": [
        {
          "internalType": "address",
          "name": "spender",
          "type": "address"
        },
        {
          "internalType": "uint256",
          "name": "amount",
          "type": "uint256"
        }
      ],
      "name": "approve",
      "outputs": [
        {
          "internalType": "bool",
          "name": "",
          "type": "bool"
        }
      ],
      "payable": false,
      "stateMutability": "nonpayable",
      "type": "function"
    },
    {
      "constant": true,
      "inputs": [
        {
          "internalType": "address",
          "name": "owner",
          "type": "address"
        }
      ],
      "name": "balanceOf",
      "outputs": [
        {
          "internalType": "uint256",
          "name": "",
          "type": "uint256"
        }
      ],
      "payable": false,
      "stateMutability": "view",
      "type": "function"
    },
    {
      "constant": false,
      "inputs": [
        {
          "internalType": "address",
          "name": "owner",
          "type": "address"
        }
      ],
      "name": "balanceOfUnderlying",
      "outputs": [
        {
          "internalType": "uint256",
          "name": "",
          "type": "uint256"
        }
      ],
      "payable": false,
      "stateMutability": "nonpayable",
      "type": "function"
    },
    {
      "constant": false,
      "inputs": [
        {
          "internalType": "uint256",
          "name": "borrowAmount",
          "type": "uint256"
        }
      ],
      "name": "borrow",
      "outputs": [
        {
          "internalType": "uint256",
          "name": "",
          "type": "uint256"
        }
      ],
      "payable": false,
      "stateMutability": "nonpayable",
      "type": "function"
    },
    {
      "constant": false,
      "inputs": [
        {
          "internalType": "address",
          "name": "account",
          "type": "address"
        }
      ],
      "name": "borrowBalanceCurrent",
      "outputs": [
        {
          "internalType": "uint256",
          "name": "",
          "type": "uint256"
        }
      ],
      "payable": false,
      "stateMutability": "nonpayable",
      "type": "function"
    },
    {
      "constant": true,
      "inputs": [
        {
          "internalType": "address",
          "name": "account",
          "type": "address"
        }
      ],
      "name": "borrowBalanceStored",
      "outputs": [
        {
          "internalType": "uint256",
          "name": "",
          "type": "uint256"
        }
      ],
      "payable": false,
      "stateMutability": "view",
      "type": "function"
    },
    {
      "constant": true,
      "inputs": [],
      "name": "borrowIndex",
      "outputs": [
        {
          "internalType": "uint256",
          "name": "",
          "type": "uint256"
        }
      ],
      "payable": false,
      "stateMutability": "view",
      "type": "function"
    },
    {
      "constant": true,
      "inputs": [],
      "name": "borrowRatePerBlock",
      "outputs": [
        {
          "internalType": "uint256",
          "name": "",
          "type": "uint256"
        }
      ],
      "payable": false,
      "stateMutability": "view",
      "type": "function"
    },
    {
      "constant": true,
      "inputs": [],
      "name": "comptroller",
      "outputs": [
        {
          "internalType": "contract ComptrollerInterface",
          "name": "",
          "type": "address"
        }
      ],
      "payable": false,
      "stateMutability": "view",
      "type": "function"
    },
    {
      "constant": true,
      "inputs": [],
      "name": "decimals",
      "outputs": [
        {
          "internalType": "uint8",
          "name": "",
          "type": "uint8"
        }
      ],
      "payable": false,
      "stateMutability": "view",
      "type": "function"
    },
    {
      "constant": false,
      "inputs": [],
      "name": "exchangeRateCurrent",
      "outputs": [
        {
          "internalType": "uint256",
          "name": "",
          "type": "uint256"
        }
      ],
      "payable": false,
      "stateMutability": "nonpayable",
      "type": "function"
    },
    {
      "constant": true,
      "inputs": [],
      "name": "exchangeRateStored",
      "outputs": [
        {
          "internalType": "uint256",
          "name": "",
          "type": "uint256"
        }
      ],
      "payable": false,
      "stateMutability": "view",
      "type": "function"
    },
    {
      "constant": true,
      "inputs": [
        {
          "internalType": "address",
          "name": "account",
          "type": "address"
        }
      ],
      "name": "getAccountSnapshot",
      "outputs": [
        {
          "internalType": "uint256",
          "name": "",
          "type": "uint256"
        },
        {
          "internalType": "uint256",
          "name": "",
          "type": "uint256"
        },
        {
          "internalType": "uint256",
          "name": "",
          "type": "uint256"
        },
        {
          "internalType": "uint256",
          "name": "",
          "type": "uint256"
        }
      ],
      "payable": false,
      "stateMutability": "view",
      "type": "function"
    },
    {
      "constant": true,
      "inputs": [],
      "name": "getCash",
      "outputs": [
        {
          "internalType": "uint256",
          "name": "",
          "type": "uint256"
        }
      ],
      "payable": false,
      "stateMutability": "view",
      "type": "function"
    },
    {
      "constant": false,
      "inputs": [
        {
          "internalType": "contract ComptrollerInterface",
          "name": "comptroller_",
          "type": "address"
        },
        {
          "internalType": "contract InterestRateModel",
          "name": "interestRateModel_",
          "type": "address"
        },
        {
          "internalType": "uint256",
          "name": "initialExchangeRateMantissa_",
          "type": "uint256"
        },
        {
          "internalType": "string",
          "name": "name_",
          "type": "string"
        },
        {
          "internalType": "string",
          "name": "symbol_",
          "type": "string"
        },
        {
          "internalType": "uint8",
          "name": "decimals_",
          "type": "uint8"
        }
      ],
      "name": "initialize",
      "outputs": [],
      "payable": false,
      "stateMutability": "nonpayable",
      "type": "function"
    },
    {
      "constant": true,
      "inputs": [],
      "name": "interestRateModel",
      "outputs": [
        {
          "internalType": "contract InterestRateModel",
          "name": "",
          "type": "address"
        }
      ],
      "payable": false,
      "stateMutability": "view",
      "type": "function"
    },
    {
      "constant": true,
      "inputs": [],
      "name": "isCToken",
      "outputs": [
        {
          "internalType": "bool",
          "name": "",
          "type": "bool"
        }
      ],
      "payable": false,
      "stateMutability": "view",
      "type": "function"
    },
    {
      "constant": false,
      "inputs": [
        {
          "internalType": "address",
          "name": "borrower",
          "type": "address"
        },
        {
          "internalType": "contract CToken",
          "name": "cTokenCollateral",
          "type": "address"
        }
      ],
      "name": "liquidateBorrow",
      "outputs": [],
      "payable": true,
      "stateMutability": "payable",
      "type": "function"
    },
    {
      "constant": false,
      "inputs": [],
      "name": "mint",
      "outputs": [],
      "payable": true,
      "stateMutability": "payable",
      "type": "function"
    },
    {
      "constant": true,
      "inputs": [],
      "name": "name",
      "outputs": [
        {
          "internalType": "string",
          "name": "",
          "type": "string"
        }
      ],
      "payable": false,
      "stateMutability": "view",
      "type": "function"
    },
    {
      "constant": true,
      "inputs": [],
      "name": "pendingAdmin",
      "outputs": [
        {
          "internalType": "address payable",
          "name": "",
          "type": "address"
        }
      ],
      "payable": false,
      "stateMutability": "view",
      "type": "function"
    },
    {
      "constant": true,
      "inputs": [],
      "name": "protocolSeizeShareMantissa",
      "outputs": [
        {
          "internalType": "uint256",
          "name": "",
          "type": "uint256"
        }
      ],
      "payable": false,
      "stateMutability": "view",
      "type": "function"
    },
    {
      "constant": false,
      "inputs": [
        {
          "internalType": "uint256",
          "name": "redeemTokens",
          "type": "uint256"
        }
      ],
      "name": "redeem",
      "outputs": [
        {
          "internalType": "uint256",
          "name": "",
          "type": "uint256"
        }
      ],
      "payable": false,
      "stateMutability": "nonpayable",
      "type": "function"
    },
    {
      "constant": false,
      "inputs": [
        {
          "internalType": "uint256",
          "name": "redeemAmount",
          "type": "uint256"
        }
      ],
      "name": "redeemUnderlying",
      "outputs": [
        {
          "internalType": "uint256",
          "name": "",
          "type": "uint256"
        }
      ],
      "payable": false,
      "stateMutability": "nonpayable",
      "type": "function"
    },
    {
      "constant": false,
      "inputs": [],
      "name": "repayBorrow",
      "outputs": [],
      "payable": true,
      "stateMutability": "payable",
      "type": "function"
    },
    {
      "constant": false,
      "inputs": [
        {
          "internalType": "address",
          "name": "borrower",
          "type": "address"
        }
      ],
      "name": "repayBorrowBehalf",
      "outputs": [],
      "payable": true,
      "stateMutability": "payable",
      "type": "function"
    },
    {
      "constant": true,
      "inputs": [],
      "name": "reserveFactorMantissa",
      "outputs": [
        {
          "internalType": "uint256",
          "name": "",
          "type": "uint256"
        }
      ],
      "payable": false,
      "stateMutability": "view",
      "type": "function"
    },
    {
      "constant": false,
      "inputs": [
        {
          "internalType": "address",
          "name": "liquidator",
          "type": "address"
        },
        {
          "internalType": "address",
          "name": "borrower",
          "type": "address"
        },
        {
          "internalType": "uint256",
          "name": "seizeTokens",
          "type": "uint256"
        }
      ],
      "name": "seize",
      "outputs": [
        {
          "internalType": "uint256",
          "name": "",
          "type": "uint256"
        }
      ],
      "payable": false,
      "stateMutability": "nonpayable",
      "type": "function"
    },
    {
      "constant": true,
      "inputs": [],
      "name": "supplyRatePerBlock",
      "outputs": [
        {
          "internalType": "uint256",
          "name": "",
          "type": "uint256"
        }
      ],
      "payable": false,
      "stateMutability": "view",
      "type": "function"
    },
    {
      "constant": true,
      "inputs": [],
      "name": "symbol",
      "outputs": [
        {
          "internalType": "string",
          "name": "",
          "type": "string"
        }
      ],
      "payable": false,
      "stateMutability": "view",
      "type": "function"
    },
    {
      "constant": true,
      "inputs": [],
      "name": "totalBorrows",
      "outputs": [
        {
          "internalType": "uint256",
          "name": "",
          "type": "uint256"
        }
      ],
      "payable": false,
      "stateMutability": "view",
      "type": "function"
    },
    {
      "constant": false,
      "inputs": [],
      "name": "totalBorrowsCurrent",
      "outputs": [
        {
          "internalType": "uint256",
          "name": "",
          "type": "uint256"
        }
      ],
      "payable": false,
      "stateMutability": "nonpayable",
      "type": "function"
    },
    {
      "constant": true,
      "inputs": [],
      "name": "totalReserves",
      "outputs": [
        {
          "internalType": "uint256",
          "name": "",
          "type": "uint256"
        }
      ],
      "payable": false,
      "stateMutability": "view",
      "type": "function"
    },
    {
      "constant": true,
      "inputs": [],
      "name": "totalSupply",
      "outputs": [
        {
          "internalType": "uint256",
          "name": "",
          "type": "uint256"
        }
      ],
      "payable": false,
      "stateMutability": "view",
      "type": "function"
    },
    {
      "constant": false,
      "inputs": [
        {
          "internalType": "address",
          "name": "dst",
          "type": "address"
        },
        {
          "internalType": "uint256",
          "name": "amount",
          "type": "uint256"
        }
      ],
      "name": "transfer",
      "outputs": [
        {
          "internalType": "bool",
          "name": "",
          "type": "bool"
        }
      ],
      "payable": false,
      "stateMutability": "nonpayable",
      "type": "function"
    },
    {
      "constant": false,
      "inputs": [
        {
          "internalType": "address",
          "name": "src",
          "type": "address"
        },
        {
          "internalType": "address",
          "name": "dst",
          "type": "address"
        },
        {
          "internalType": "uint256",
          "name": "amount",
          "type": "uint256"
        }
      ],
      "name": "transferFrom",
      "outputs": [
        {
          "internalType": "bool",
          "name": "",
          "type": "bool"
        }
      ],
      "payable": false,
      "stateMutability": "nonpayable",
      "type": "function"
    }
  ],
  "transactionHash": "0xe3f114e575fc4d2f138cff5734f1681cae21c1b99b940e308cccedfa52bfa70e",
  "args": [
    "0xB3056f6060ACb5e5A688581F4b4821E049016BE2",
    "0xa43B7DaBfB319B063E3BaA96Ba1548022513486D",
    "200000000000000000000000000",
    "Compound ETH",
    "cETH",
    8,
    "0x6D2CaBDF5825E34AaDB415B50219275A41B34801"
  ],
  "numDeployments": 1,
  "solcInputHash": "9822281472093a63caafd88059278793",
  "bytecode": "0x60806040523480156200001157600080fd5b50604051620059a3380380620059a3833981810160405260e08110156200003757600080fd5b8151602083015160408085015160608601805192519496939591949391820192846401000000008211156200006b57600080fd5b9083019060208201858111156200008157600080fd5b82516401000000008111828201881017156200009c57600080fd5b82525081516020918201929091019080838360005b83811015620000cb578181015183820152602001620000b1565b50505050905090810190601f168015620000f95780820380516001836020036101000a031916815260200191505b50604052602001805160405193929190846401000000008211156200011d57600080fd5b9083019060208201858111156200013357600080fd5b82516401000000008111828201881017156200014e57600080fd5b82525081516020918201929091019080838360005b838110156200017d57818101518382015260200162000163565b50505050905090810190601f168015620001ab5780820380516001836020036101000a031916815260200191505b506040908152602082015191015160038054610100600160a81b03191633610100021790559092509050620001e587878787878762000218565b600380546001600160a01b0390921661010002610100600160a81b03199092169190911790555062000853945050505050565b60035461010090046001600160a01b03163314620002685760405162461bcd60e51b81526004018080602001828103825260248152602001806200590a6024913960400191505060405180910390fd5b600954158015620002795750600a54155b620002b65760405162461bcd60e51b81526004018080602001828103825260238152602001806200592e6023913960400191505060405180910390fd5b600784905583620002f95760405162461bcd60e51b8152600401808060200182810382526030815260200180620059516030913960400191505060405180910390fd5b60006200030f876001600160e01b036200042e16565b9050801562000365576040805162461bcd60e51b815260206004820152601a60248201527f73657474696e6720636f6d7074726f6c6c6572206661696c6564000000000000604482015290519081900360640190fd5b620003786001600160e01b036200059616565b600955670de0b6b3a7640000600a556200039b866001600160e01b036200059b16565b90508015620003dc5760405162461bcd60e51b8152600401808060200182810382526022815260200180620059816022913960400191505060405180910390fd5b8351620003f1906001906020870190620007b1565b50825162000407906002906020860190620007b1565b50506003805460ff90921660ff199283161790556000805490911660011790555050505050565b60035460009061010090046001600160a01b031633146200046857620004606001603f6001600160e01b036200074116565b905062000591565b60055460408051623f1ee960e11b815290516001600160a01b0392831692851691627e3dd2916004808301926020929190829003018186803b158015620004ae57600080fd5b505afa158015620004c3573d6000803e3d6000fd5b505050506040513d6020811015620004da57600080fd5b50516200052e576040805162461bcd60e51b815260206004820152601c60248201527f6d61726b6572206d6574686f642072657475726e65642066616c736500000000604482015290519081900360640190fd5b600580546001600160a01b0319166001600160a01b03858116918217909255604080519284168352602083019190915280517f7ac369dbd14fa5ea3f473ed67cc9d598964a77501540ba6751eb0b3decf5870d9281900390910190a160005b9150505b919050565b435b90565b600354600090819061010090046001600160a01b03163314620005d857620005cf600160426001600160e01b036200074116565b91505062000591565b620005eb6001600160e01b036200059616565b600954146200060b57620005cf600a60416001600160e01b036200074116565b600660009054906101000a90046001600160a01b03169050826001600160a01b0316632191f92a6040518163ffffffff1660e01b815260040160206040518083038186803b1580156200065d57600080fd5b505afa15801562000672573d6000803e3d6000fd5b505050506040513d60208110156200068957600080fd5b5051620006dd576040805162461bcd60e51b815260206004820152601c60248201527f6d61726b6572206d6574686f642072657475726e65642066616c736500000000604482015290519081900360640190fd5b600680546001600160a01b0319166001600160a01b03858116918217909255604080519284168352602083019190915280517fedffc32e068c7c95dfd4bdfd5c4d939a084d6b11c4199eac8436ed234d72f9269281900390910190a160006200058d565b60007f45b96fe442630264581b197e84bbada861235052c5a1aadfff9ea4e40a969aa08360108111156200077157fe5b8360508111156200077e57fe5b604080519283526020830191909152600082820152519081900360600190a1826010811115620007aa57fe5b9392505050565b828054600181600116156101000203166002900490600052602060002090601f016020900481019282601f10620007f457805160ff191683800117855562000824565b8280016001018555821562000824579182015b828111156200082457825182559160200191906001019062000807565b506200083292915062000836565b5090565b6200059891905b808211156200083257600081556001016200083d565b6150a780620008636000396000f3fe6080604052600436106102885760003560e01c806395d89b411161015a578063c5ebeaec116100c1578063f3fdb15a1161007a578063f3fdb15a14610a80578063f851a44014610a95578063f8f9da2814610aaa578063fca7820b14610abf578063fcb6414714610ae9578063fe9c44ae14610af157610288565b8063c5ebeaec14610983578063db006a75146109ad578063dd62ed3e146109d7578063e597461914610a12578063e9c714f214610a38578063f2b3abbd14610a4d57610288565b8063aae40a2a11610113578063aae40a2a1461085c578063ae9d70b01461088a578063b2a02ff11461089f578063b71d1a0c146108e2578063bd6d894d14610915578063c37f68e21461092a57610288565b806395d89b411461065257806395dd91931461066757806399d8c1b41461069a578063a6afed95146107f9578063a9059cbb1461080e578063aa5af0fd1461084757610288565b80633b1d21a2116101fe5780636752e702116101b75780636752e702146105a15780636c540baf146105b657806370a08231146105cb57806373acee98146105fe578063852a12e3146106135780638f840ddd1461063d57610288565b80633b1d21a2146104fd5780634576b5db1461051257806347bd3718146105455780634e4d9fea1461055a5780635fe3b56714610562578063601a0bf11461057757610288565b806318160ddd1161025057806318160ddd14610401578063182df0f51461041657806323b872dd1461042b578063267822471461046e578063313ce5671461049f5780633af9e669146104ca57610288565b806306fdde03146102c6578063095ea7b3146103505780631249c58b1461039d578063173b9904146103a757806317bfdfbc146103ce575b600061029334610b06565b5090506102c3816040518060400160405280600b81526020016a1b5a5b9d0819985a5b195960aa1b815250610bae565b50005b3480156102d257600080fd5b506102db610dae565b6040805160208082528351818301528351919283929083019185019080838360005b838110156103155781810151838201526020016102fd565b50505050905090810190601f1680156103425780820380516001836020036101000a031916815260200191505b509250505060405180910390f35b34801561035c57600080fd5b506103896004803603604081101561037357600080fd5b506001600160a01b038135169060200135610e3b565b604080519115158252519081900360200190f35b6103a5610ea8565b005b3480156103b357600080fd5b506103bc610ee6565b60408051918252519081900360200190f35b3480156103da57600080fd5b506103bc600480360360208110156103f157600080fd5b50356001600160a01b0316610eec565b34801561040d57600080fd5b506103bc610fac565b34801561042257600080fd5b506103bc610fb2565b34801561043757600080fd5b506103896004803603606081101561044e57600080fd5b506001600160a01b03813581169160208101359091169060400135611015565b34801561047a57600080fd5b50610483611087565b604080516001600160a01b039092168252519081900360200190f35b3480156104ab57600080fd5b506104b4611096565b6040805160ff9092168252519081900360200190f35b3480156104d657600080fd5b506103bc600480360360208110156104ed57600080fd5b50356001600160a01b031661109f565b34801561050957600080fd5b506103bc611157565b34801561051e57600080fd5b506103bc6004803603602081101561053557600080fd5b50356001600160a01b0316611166565b34801561055157600080fd5b506103bc6112bb565b6103a56112c1565b34801561056e57600080fd5b50610483611303565b34801561058357600080fd5b506103bc6004803603602081101561059a57600080fd5b5035611312565b3480156105ad57600080fd5b506103bc6113ad565b3480156105c257600080fd5b506103bc6113b8565b3480156105d757600080fd5b506103bc600480360360208110156105ee57600080fd5b50356001600160a01b03166113be565b34801561060a57600080fd5b506103bc6113d9565b34801561061f57600080fd5b506103bc6004803603602081101561063657600080fd5b503561148f565b34801561064957600080fd5b506103bc61149a565b34801561065e57600080fd5b506102db6114a0565b34801561067357600080fd5b506103bc6004803603602081101561068a57600080fd5b50356001600160a01b03166114f8565b3480156106a657600080fd5b506103a5600480360360c08110156106bd57600080fd5b6001600160a01b038235811692602081013590911691604082013591908101906080810160608201356401000000008111156106f857600080fd5b82018360208201111561070a57600080fd5b8035906020019184600183028401116401000000008311171561072c57600080fd5b91908080601f016020809104026020016040519081016040528093929190818152602001838380828437600092019190915250929594936020810193503591505064010000000081111561077f57600080fd5b82018360208201111561079157600080fd5b803590602001918460018302840111640100000000831117156107b357600080fd5b91908080601f0160208091040260200160405190810160405280939291908181526020018383808284376000920191909152509295505050903560ff1691506115559050565b34801561080557600080fd5b506103bc61173c565b34801561081a57600080fd5b506103896004803603604081101561083157600080fd5b506001600160a01b038135169060200135611a94565b34801561085357600080fd5b506103bc611b05565b6103a56004803603604081101561087257600080fd5b506001600160a01b0381358116916020013516611b0b565b34801561089657600080fd5b506103bc611b58565b3480156108ab57600080fd5b506103bc600480360360608110156108c257600080fd5b506001600160a01b03813581169160208101359091169060400135611bf7565b3480156108ee57600080fd5b506103bc6004803603602081101561090557600080fd5b50356001600160a01b0316611c68565b34801561092157600080fd5b506103bc611cf4565b34801561093657600080fd5b5061095d6004803603602081101561094d57600080fd5b50356001600160a01b0316611db0565b604080519485526020850193909352838301919091526060830152519081900360800190f35b34801561098f57600080fd5b506103bc600480360360208110156109a657600080fd5b5035611e45565b3480156109b957600080fd5b506103bc600480360360208110156109d057600080fd5b5035611e50565b3480156109e357600080fd5b506103bc600480360360408110156109fa57600080fd5b506001600160a01b0381358116916020013516611e5b565b6103a560048036036020811015610a2857600080fd5b50356001600160a01b0316611e86565b348015610a4457600080fd5b506103bc611ed4565b348015610a5957600080fd5b506103bc60048036036020811015610a7057600080fd5b50356001600160a01b0316611fd7565b348015610a8c57600080fd5b50610483612011565b348015610aa157600080fd5b50610483612020565b348015610ab657600080fd5b506103bc612034565b348015610acb57600080fd5b506103bc60048036036020811015610ae257600080fd5b5035612098565b6103bc612116565b348015610afd57600080fd5b50610389612121565b60008054819060ff16610b4d576040805162461bcd60e51b815260206004820152600a6024820152691c994b595b9d195c995960b21b604482015290519081900360640190fd5b6000805460ff19168155610b5f61173c565b90508015610b8a57610b7d816010811115610b7657fe5b601e612126565b925060009150610b9a9050565b610b94338561218c565b92509250505b6000805460ff191660011790559092909150565b81610bb857610daa565b606081516005016040519080825280601f01601f191660200182016040528015610be9576020820181803883390190505b50905060005b8251811015610c3a57828181518110610c0457fe5b602001015160f81c60f81b828281518110610c1b57fe5b60200101906001600160f81b031916908160001a905350600101610bef565b8151600160fd1b90839083908110610c4e57fe5b60200101906001600160f81b031916908160001a905350602860f81b828260010181518110610c7957fe5b60200101906001600160f81b031916908160001a905350600a840460300160f81b828260020181518110610ca957fe5b60200101906001600160f81b031916908160001a905350600a840660300160f81b828260030181518110610cd957fe5b60200101906001600160f81b031916908160001a905350602960f81b828260040181518110610d0457fe5b60200101906001600160f81b031916908160001a905350818415610da65760405162461bcd60e51b81526004018080602001828103825283818151815260200191508051906020019080838360005b83811015610d6b578181015183820152602001610d53565b50505050905090810190601f168015610d985780820380516001836020036101000a031916815260200191505b509250505060405180910390fd5b5050505b5050565b60018054604080516020600284861615610100026000190190941693909304601f81018490048402820184019092528181529291830182828015610e335780601f10610e0857610100808354040283529160200191610e33565b820191906000526020600020905b815481529060010190602001808311610e1657829003601f168201915b505050505081565b336000818152600f602090815260408083206001600160a01b03871680855290835281842086905581518681529151939493909284927f8c5be1e5ebec7d5bd14f71427d1e84f3dd0314c0f7b2291e5b200ac8c7c3b925929081900390910190a360019150505b92915050565b6000610eb334610b06565b509050610ee3816040518060400160405280600b81526020016a1b5a5b9d0819985a5b195960aa1b815250610bae565b50565b60085481565b6000805460ff16610f31576040805162461bcd60e51b815260206004820152600a6024820152691c994b595b9d195c995960b21b604482015290519081900360640190fd5b6000805460ff19168155610f4361173c565b14610f8e576040805162461bcd60e51b81526020600482015260166024820152751858d8dc9d59481a5b9d195c995cdd0819985a5b195960521b604482015290519081900360640190fd5b610f97826114f8565b90505b6000805460ff19166001179055919050565b600d5481565b6000806000610fbf61255e565b90925090506000826003811115610fd257fe5b1461100e5760405162461bcd60e51b8152600401808060200182810382526035815260200180614fbe6035913960400191505060405180910390fd5b9150505b90565b6000805460ff1661105a576040805162461bcd60e51b815260206004820152600a6024820152691c994b595b9d195c995960b21b604482015290519081900360640190fd5b6000805460ff191681556110703386868661260d565b1490506000805460ff191660011790559392505050565b6004546001600160a01b031681565b60035460ff1681565b60006110a9614c5f565b60405180602001604052806110bc611cf4565b90526001600160a01b0384166000908152600e60205260408120549192509081906110e890849061289b565b909250905060008260038111156110fb57fe5b1461114d576040805162461bcd60e51b815260206004820152601f60248201527f62616c616e636520636f756c64206e6f742062652063616c63756c6174656400604482015290519081900360640190fd5b925050505b919050565b60006111616128ee565b905090565b60035460009061010090046001600160a01b031633146111935761118c6001603f612126565b9050611152565b60055460408051623f1ee960e11b815290516001600160a01b0392831692851691627e3dd2916004808301926020929190829003018186803b1580156111d857600080fd5b505afa1580156111ec573d6000803e3d6000fd5b505050506040513d602081101561120257600080fd5b5051611255576040805162461bcd60e51b815260206004820152601c60248201527f6d61726b6572206d6574686f642072657475726e65642066616c736500000000604482015290519081900360640190fd5b600580546001600160a01b0319166001600160a01b03858116918217909255604080519284168352602083019190915280517f7ac369dbd14fa5ea3f473ed67cc9d598964a77501540ba6751eb0b3decf5870d9281900390910190a160005b9392505050565b600b5481565b60006112cc3461291a565b509050610ee381604051806040016040528060128152602001711c995c185e509bdc9c9bddc819985a5b195960721b815250610bae565b6005546001600160a01b031681565b6000805460ff16611357576040805162461bcd60e51b815260206004820152600a6024820152691c994b595b9d195c995960b21b604482015290519081900360640190fd5b6000805460ff1916815561136961173c565b9050801561138f5761138781601081111561138057fe5b6030612126565b915050610f9a565b6113988361299c565b9150506000805460ff19166001179055919050565b666379da05b6000081565b60095481565b6001600160a01b03166000908152600e602052604090205490565b6000805460ff1661141e576040805162461bcd60e51b815260206004820152600a6024820152691c994b595b9d195c995960b21b604482015290519081900360640190fd5b6000805460ff1916815561143061173c565b1461147b576040805162461bcd60e51b81526020600482015260166024820152751858d8dc9d59481a5b9d195c995cdd0819985a5b195960521b604482015290519081900360640190fd5b50600b546000805460ff1916600117905590565b6000610ea282612acf565b600c5481565b6002805460408051602060018416156101000260001901909316849004601f81018490048402820184019092528181529291830182828015610e335780601f10610e0857610100808354040283529160200191610e33565b600080600061150684612b50565b9092509050600082600381111561151957fe5b146112b45760405162461bcd60e51b8152600401808060200182810382526037815260200180614ec96037913960400191505060405180910390fd5b60035461010090046001600160a01b031633146115a35760405162461bcd60e51b8152600401808060200182810382526024815260200180614e056024913960400191505060405180910390fd5b6009541580156115b35750600a54155b6115ee5760405162461bcd60e51b8152600401808060200182810382526023815260200180614e296023913960400191505060405180910390fd5b60078490558361162f5760405162461bcd60e51b8152600401808060200182810382526030815260200180614e4c6030913960400191505060405180910390fd5b600061163a87611166565b9050801561168f576040805162461bcd60e51b815260206004820152601a60248201527f73657474696e6720636f6d7074726f6c6c6572206661696c6564000000000000604482015290519081900360640190fd5b611697612c04565b600955670de0b6b3a7640000600a556116af86612c08565b905080156116ee5760405162461bcd60e51b8152600401808060200182810382526022815260200180614e7c6022913960400191505060405180910390fd5b8351611701906001906020870190614c72565b508251611715906002906020860190614c72565b50506003805460ff90921660ff199283161790556000805490911660011790555050505050565b600080611747612c04565b6009549091508082141561176057600092505050611012565b600061176a6128ee565b600b54600c54600a54600654604080516315f2405360e01b815260048101879052602481018690526044810185905290519596509394929391926000926001600160a01b03909216916315f24053916064808301926020929190829003018186803b1580156117d857600080fd5b505afa1580156117ec573d6000803e3d6000fd5b505050506040513d602081101561180257600080fd5b5051905065048c27395000811115611861576040805162461bcd60e51b815260206004820152601c60248201527f626f72726f772072617465206973206162737572646c79206869676800000000604482015290519081900360640190fd5b60008061186e8989612d7d565b9092509050600082600381111561188157fe5b146118d3576040805162461bcd60e51b815260206004820152601f60248201527f636f756c64206e6f742063616c63756c61746520626c6f636b2064656c746100604482015290519081900360640190fd5b6118db614c5f565b6000806000806118f960405180602001604052808a81525087612da0565b9097509450600087600381111561190c57fe5b1461193e576119296009600689600381111561192457fe5b612e08565b9e505050505050505050505050505050611012565b611948858c61289b565b9097509350600087600381111561195b57fe5b14611973576119296009600189600381111561192457fe5b61197d848c612e6e565b9097509250600087600381111561199057fe5b146119a8576119296009600489600381111561192457fe5b6119c36040518060200160405280600854815250858c612e94565b909750915060008760038111156119d657fe5b146119ee576119296009600589600381111561192457fe5b6119f9858a8b612e94565b90975090506000876003811115611a0c57fe5b14611a24576119296009600389600381111561192457fe5b60098e9055600a819055600b839055600c829055604080518d8152602081018690528082018390526060810185905290517f4dec04e750ca11537cabcd8a9eab06494de08da3735bc8871cd41250e190bc049181900360800190a160009e50505050505050505050505050505090565b6000805460ff16611ad9576040805162461bcd60e51b815260206004820152600a6024820152691c994b595b9d195c995960b21b604482015290519081900360640190fd5b6000805460ff19168155611aef3333868661260d565b1490506000805460ff1916600117905592915050565b600a5481565b6000611b18833484612ef0565b509050611b5381604051806040016040528060168152602001751b1a5c5d5a59185d19509bdc9c9bddc819985a5b195960521b815250610bae565b505050565b6006546000906001600160a01b031663b8168816611b746128ee565b600b54600c546008546040518563ffffffff1660e01b81526004018085815260200184815260200183815260200182815260200194505050505060206040518083038186803b158015611bc657600080fd5b505afa158015611bda573d6000803e3d6000fd5b505050506040513d6020811015611bf057600080fd5b5051905090565b6000805460ff16611c3c576040805162461bcd60e51b815260206004820152600a6024820152691c994b595b9d195c995960b21b604482015290519081900360640190fd5b6000805460ff19169055611c5233858585613022565b90506000805460ff191660011790559392505050565b60035460009061010090046001600160a01b03163314611c8e5761118c60016045612126565b600480546001600160a01b038481166001600160a01b0319831681179093556040805191909216808252602082019390935281517fca4f2f25d0898edd99413412fb94012f9e54ec8142f9b093e7720646a95b16a9929181900390910190a160006112b4565b6000805460ff16611d39576040805162461bcd60e51b815260206004820152600a6024820152691c994b595b9d195c995960b21b604482015290519081900360640190fd5b6000805460ff19168155611d4b61173c565b14611d96576040805162461bcd60e51b81526020600482015260166024820152751858d8dc9d59481a5b9d195c995cdd0819985a5b195960521b604482015290519081900360640190fd5b611d9e610fb2565b90506000805460ff1916600117905590565b6001600160a01b0381166000908152600e6020526040812054819081908190818080611ddb89612b50565b935090506000816003811115611ded57fe5b14611e0b5760095b975060009650869550859450611e3e9350505050565b611e1361255e565b925090506000816003811115611e2557fe5b14611e31576009611df5565b5060009650919450925090505b9193509193565b6000610ea2826133fc565b6000610ea28261347b565b6001600160a01b039182166000908152600f6020908152604080832093909416825291909152205490565b6000611e9282346134f5565b509050610daa816040518060400160405280601881526020017f7265706179426f72726f77426568616c66206661696c65640000000000000000815250610bae565b6004546000906001600160a01b031633141580611eef575033155b15611f0757611f0060016000612126565b9050611012565b60038054600480546001600160a01b03818116610100818102610100600160a81b0319871617968790556001600160a01b031990931690935560408051948390048216808652929095041660208401528351909391927ff9ffabca9c8276e99321725bcb43fb076a6c66a54b7f21c4e8146d8519b417dc92908290030190a1600454604080516001600160a01b038085168252909216602083015280517fca4f2f25d0898edd99413412fb94012f9e54ec8142f9b093e7720646a95b16a99281900390910190a160009250505090565b600080611fe261173c565b9050801561200857612000816010811115611ff957fe5b6040612126565b915050611152565b6112b483612c08565b6006546001600160a01b031681565b60035461010090046001600160a01b031681565b6006546000906001600160a01b03166315f240536120506128ee565b600b54600c546040518463ffffffff1660e01b815260040180848152602001838152602001828152602001935050505060206040518083038186803b158015611bc657600080fd5b6000805460ff166120dd576040805162461bcd60e51b815260206004820152600a6024820152691c994b595b9d195c995960b21b604482015290519081900360640190fd5b6000805460ff191681556120ef61173c565b9050801561210d5761138781601081111561210657fe5b6046612126565b611398836135a0565b600061116134613648565b600181565b60007f45b96fe442630264581b197e84bbada861235052c5a1aadfff9ea4e40a969aa083601081111561215557fe5b83605081111561216157fe5b604080519283526020830191909152600082820152519081900360600190a18260108111156112b457fe5b60055460408051634ef4c3e160e01b81523060048201526001600160a01b03858116602483015260448201859052915160009384938493911691634ef4c3e19160648082019260209290919082900301818787803b1580156121ed57600080fd5b505af1158015612201573d6000803e3d6000fd5b505050506040513d602081101561221757600080fd5b50519050801561223b5761222e6003601f83612e08565b9250600091506125579050565b612243612c04565b600954146122575761222e600a6022612126565b61225f614cf0565b61226761255e565b604083018190526020830182600381111561227e57fe5b600381111561228957fe5b90525060009050816020015160038111156122a057fe5b146122ca576122bc600960218360200151600381111561192457fe5b935060009250612557915050565b6122d486866136dc565b60c08201819052604080516020810182529083015181526122f59190613778565b606083018190526020830182600381111561230c57fe5b600381111561231757fe5b905250600090508160200151600381111561232e57fe5b14612380576040805162461bcd60e51b815260206004820181905260248201527f4d494e545f45584348414e47455f43414c43554c4154494f4e5f4641494c4544604482015290519081900360640190fd5b612390600d548260600151612e6e565b60808301819052602083018260038111156123a757fe5b60038111156123b257fe5b90525060009050816020015160038111156123c957fe5b146124055760405162461bcd60e51b8152600401808060200182810382526028815260200180614ff36028913960400191505060405180910390fd5b6001600160a01b0386166000908152600e6020526040902054606082015161242d9190612e6e565b60a083018190526020830182600381111561244457fe5b600381111561244f57fe5b905250600090508160200151600381111561246657fe5b146124a25760405162461bcd60e51b815260040180806020018281038252602b815260200180614e9e602b913960400191505060405180910390fd5b6080810151600d5560a08101516001600160a01b0387166000818152600e60209081526040918290209390935560c084015160608086015183519485529484019190915282820193909352517f4c209b5fc8ad50758f13e2e1088ba56a560dff690a1c6fef26394f4c03821c4f929181900390910190a1606081015160408051918252516001600160a01b038816913091600080516020614f3a8339815191529181900360200190a360c00151600093509150505b9250929050565b600d5460009081908061257957505060075460009150612609565b60006125836128ee565b9050600061258f614c5f565b60006125a084600b54600c5461378f565b9350905060008160038111156125b257fe5b146125c7579550600094506126099350505050565b6125d183866137cd565b9250905060008160038111156125e357fe5b146125f8579550600094506126099350505050565b505160009550935061260992505050565b9091565b600554604080516317b9b84b60e31b81523060048201526001600160a01b03868116602483015285811660448301526064820185905291516000938493169163bdcdc25891608480830192602092919082900301818787803b15801561267257600080fd5b505af1158015612686573d6000803e3d6000fd5b505050506040513d602081101561269c57600080fd5b5051905080156126bb576126b36003604a83612e08565b915050612893565b836001600160a01b0316856001600160a01b031614156126e1576126b36002604b612126565b60006001600160a01b0387811690871614156127005750600019612728565b506001600160a01b038086166000908152600f60209081526040808320938a16835292905220545b6000806000806127388589612d7d565b9094509250600084600381111561274b57fe5b146127695761275c6009604b612126565b9650505050505050612893565b6001600160a01b038a166000908152600e602052604090205461278c9089612d7d565b9094509150600084600381111561279f57fe5b146127b05761275c6009604c612126565b6001600160a01b0389166000908152600e60205260409020546127d39089612e6e565b909450905060008460038111156127e657fe5b146127f75761275c6009604d612126565b6001600160a01b03808b166000908152600e6020526040808220859055918b16815220819055600019851461284f576001600160a01b03808b166000908152600f60209081526040808320938f168352929052208390555b886001600160a01b03168a6001600160a01b0316600080516020614f3a8339815191528a6040518082815260200191505060405180910390a3600096505050505050505b949350505050565b60008060006128a8614c5f565b6128b28686612da0565b909250905060008260038111156128c557fe5b146128d65750915060009050612557565b60006128e18261387d565b9350935050509250929050565b60008060006128fd4734612d7d565b9092509050600082600381111561291057fe5b1461100e57600080fd5b60008054819060ff16612961576040805162461bcd60e51b815260206004820152600a6024820152691c994b595b9d195c995960b21b604482015290519081900360640190fd5b6000805460ff1916815561297361173c565b9050801561299157610b7d81601081111561298a57fe5b6036612126565b610b9433338661388c565b600354600090819061010090046001600160a01b031633146129c45761200060016031612126565b6129cc612c04565b600954146129e057612000600a6033612126565b826129e96128ee565b10156129fb57612000600e6032612126565b600c54831115612a115761200060026034612126565b50600c5482810390811115612a575760405162461bcd60e51b815260040180806020018281038252602481526020018061504f6024913960400191505060405180910390fd5b600c819055600354612a779061010090046001600160a01b031684613bda565b600354604080516101009092046001600160a01b0316825260208201859052818101839052517f3bad0c59cf2f06e7314077049f48a93578cd16f5ef92329f1dab1420a99c177e916060908290030190a160006112b4565b6000805460ff16612b14576040805162461bcd60e51b815260206004820152600a6024820152691c994b595b9d195c995960b21b604482015290519081900360640190fd5b6000805460ff19168155612b2661173c565b90508015612b4457611387816010811115612b3d57fe5b6027612126565b61139833600085613c10565b6001600160a01b038116600090815260106020526040812080548291829182918291612b87575060009450849350612bff92505050565b612b978160000154600a546140d7565b90945092506000846003811115612baa57fe5b14612bbf575091935060009250612bff915050565b612bcd838260010154614116565b90945091506000846003811115612be057fe5b14612bf5575091935060009250612bff915050565b5060009450925050505b915091565b4390565b600354600090819061010090046001600160a01b03163314612c305761200060016042612126565b612c38612c04565b60095414612c4c57612000600a6041612126565b600660009054906101000a90046001600160a01b03169050826001600160a01b0316632191f92a6040518163ffffffff1660e01b815260040160206040518083038186803b158015612c9d57600080fd5b505afa158015612cb1573d6000803e3d6000fd5b505050506040513d6020811015612cc757600080fd5b5051612d1a576040805162461bcd60e51b815260206004820152601c60248201527f6d61726b6572206d6574686f642072657475726e65642066616c736500000000604482015290519081900360640190fd5b600680546001600160a01b0319166001600160a01b03858116918217909255604080519284168352602083019190915280517fedffc32e068c7c95dfd4bdfd5c4d939a084d6b11c4199eac8436ed234d72f9269281900390910190a160006112b4565b600080838311612d94575060009050818303612557565b50600390506000612557565b6000612daa614c5f565b600080612dbb8660000151866140d7565b90925090506000826003811115612dce57fe5b14612ded57506040805160208101909152600081529092509050612557565b60408051602081019091529081526000969095509350505050565b60007f45b96fe442630264581b197e84bbada861235052c5a1aadfff9ea4e40a969aa0846010811115612e3757fe5b846050811115612e4357fe5b604080519283526020830191909152818101859052519081900360600190a183601081111561289357fe5b600080838301848110612e8657600092509050612557565b506002915060009050612557565b6000806000612ea1614c5f565b612eab8787612da0565b90925090506000826003811115612ebe57fe5b14612ecf5750915060009050612ee8565b612ee1612edb8261387d565b86612e6e565b9350935050505b935093915050565b60008054819060ff16612f37576040805162461bcd60e51b815260206004820152600a6024820152691c994b595b9d195c995960b21b604482015290519081900360640190fd5b6000805460ff19168155612f4961173c565b90508015612f7457612f67816010811115612f6057fe5b600f612126565b92506000915061300b9050565b836001600160a01b031663a6afed956040518163ffffffff1660e01b8152600401602060405180830381600087803b158015612faf57600080fd5b505af1158015612fc3573d6000803e3d6000fd5b505050506040513d6020811015612fd957600080fd5b505190508015612ff957612f67816010811115612ff257fe5b6010612126565b61300533878787614141565b92509250505b6000805460ff191660011790559094909350915050565b6005546040805163d02f735160e01b81523060048201526001600160a01b038781166024830152868116604483015285811660648301526084820185905291516000938493169163d02f73519160a480830192602092919082900301818787803b15801561308f57600080fd5b505af11580156130a3573d6000803e3d6000fd5b505050506040513d60208110156130b957600080fd5b5051905080156130d0576126b36003601b83612e08565b846001600160a01b0316846001600160a01b031614156130f6576126b36006601c612126565b6130fe614d2e565b6001600160a01b0385166000908152600e60205260409020546131219085612d7d565b602083018190528282600381111561313557fe5b600381111561314057fe5b905250600090508151600381111561315457fe5b14613179576131706009601a8360000151600381111561192457fe5b92505050612893565b613198846040518060200160405280666379da05b60000815250614633565b608082018190526131aa90859061465b565b60608201526131b761255e565b60c08301819052828260038111156131cb57fe5b60038111156131d657fe5b90525060009050815160038111156131ea57fe5b1461323c576040805162461bcd60e51b815260206004820152601860248201527f65786368616e67652072617465206d617468206572726f720000000000000000604482015290519081900360640190fd5b61325c60405180602001604052808360c001518152508260800151614695565b60a08201819052600c5461326f916146b4565b60e0820152600d546080820151613286919061465b565b6101008201526001600160a01b0386166000908152600e602052604090205460608201516132b49190612e6e565b60408301819052828260038111156132c857fe5b60038111156132d357fe5b90525060009050815160038111156132e757fe5b1461330357613170600960198360000151600381111561192457fe5b60e0810151600c55610100810151600d556020808201516001600160a01b038088166000818152600e855260408082209490945583860151928b16808252908490209290925560608501518351908152925191939092600080516020614f3a833981519152929081900390910190a36080810151604080519182525130916001600160a01b03881691600080516020614f3a8339815191529181900360200190a360a081015160e082015160408051308152602081019390935282810191909152517fa91e67c5ea634cd43a12c5a482724b03de01e85ca68702a53d0c2f45cb7c1dc59181900360600190a16000979650505050505050565b6000805460ff16613441576040805162461bcd60e51b815260206004820152600a6024820152691c994b595b9d195c995960b21b604482015290519081900360640190fd5b6000805460ff1916815561345361173c565b905080156134715761138781601081111561346a57fe5b6008612126565b61139833846146ea565b6000805460ff166134c0576040805162461bcd60e51b815260206004820152600a6024820152691c994b595b9d195c995960b21b604482015290519081900360640190fd5b6000805460ff191681556134d261173c565b905080156134e957611387816010811115612b3d57fe5b61139833846000613c10565b60008054819060ff1661353c576040805162461bcd60e51b815260206004820152600a6024820152691c994b595b9d195c995960b21b604482015290519081900360640190fd5b6000805460ff1916815561354e61173c565b905080156135795761356c81601081111561356557fe5b6035612126565b92506000915061358a9050565b61358433868661388c565b92509250505b6000805460ff1916600117905590939092509050565b60035460009061010090046001600160a01b031633146135c65761118c60016047612126565b6135ce612c04565b600954146135e25761118c600a6048612126565b670de0b6b3a76400008211156135fe5761118c60026049612126565b6008805490839055604080518281526020810185905281517faaa68312e2ea9d50e16af5068410ab56e1a1fd06037b1a35664812c30f821460929181900390910190a160006112b4565b6000805460ff1661368d576040805162461bcd60e51b815260206004820152600a6024820152691c994b595b9d195c995960b21b604482015290519081900360640190fd5b6000805460ff1916815561369f61173c565b905080156136bd576113878160108111156136b657fe5b604e612126565b6136c68361497e565b509150506000805460ff19166001179055919050565b6000336001600160a01b0384161461372d576040805162461bcd60e51b815260206004820152600f60248201526e0e6cadcc8cae440dad2e6dac2e8c6d608b1b604482015290519081900360640190fd5b813414613772576040805162461bcd60e51b815260206004820152600e60248201526d0ecc2d8eaca40dad2e6dac2e8c6d60931b604482015290519081900360640190fd5b50919050565b6000806000613785614c5f565b6128b28686614a66565b60008060008061379f8787612e6e565b909250905060008260038111156137b257fe5b146137c35750915060009050612ee8565b612ee18186612d7d565b60006137d7614c5f565b6000806137ec86670de0b6b3a76400006140d7565b909250905060008260038111156137ff57fe5b1461381e57506040805160208101909152600081529092509050612557565b60008061382b8388614116565b9092509050600082600381111561383e57fe5b1461386057506040805160208101909152600081529094509250612557915050565b604080516020810190915290815260009890975095505050505050565b51670de0b6b3a7640000900490565b60055460408051631200453160e11b81523060048201526001600160a01b0386811660248301528581166044830152606482018590529151600093849384939116916324008a629160848082019260209290919082900301818787803b1580156138f557600080fd5b505af1158015613909573d6000803e3d6000fd5b505050506040513d602081101561391f57600080fd5b505190508015613943576139366003603883612e08565b925060009150612ee89050565b61394b612c04565b6009541461395f57613936600a6039612126565b613967614d7b565b6001600160a01b038616600090815260106020526040902060010154606082015261399186612b50565b60808301819052602083018260038111156139a857fe5b60038111156139b357fe5b90525060009050816020015160038111156139ca57fe5b146139f4576139e6600960378360200151600381111561192457fe5b935060009250612ee8915050565b600019851415613a0d5760808101516040820152613a15565b604081018590525b613a238782604001516136dc565b60e082018190526080820151613a3891612d7d565b60a0830181905260208301826003811115613a4f57fe5b6003811115613a5a57fe5b9052506000905081602001516003811115613a7157fe5b14613aad5760405162461bcd60e51b815260040180806020018281038252603a815260200180614f00603a913960400191505060405180910390fd5b613abd600b548260e00151612d7d565b60c0830181905260208301826003811115613ad457fe5b6003811115613adf57fe5b9052506000905081602001516003811115613af657fe5b14613b325760405162461bcd60e51b8152600401808060200182810382526031815260200180614f5a6031913960400191505060405180910390fd5b60a080820180516001600160a01b03808a16600081815260106020908152604091829020948555600a5460019095019490945560c0870151600b81905560e088015195518251948f16855294840192909252828101949094526060820192909252608081019190915290517f1a2a22cb034d26d1854bdc6666a5b91fe25efbbb5dcad3b0355478d6f5c362a1929181900390910190a160e00151600097909650945050505050565b6040516001600160a01b0383169082156108fc029083906000818181858888f19350505050158015611b53573d6000803e3d6000fd5b6000821580613c1d575081155b613c585760405162461bcd60e51b815260040180806020018281038252603481526020018061501b6034913960400191505060405180910390fd5b613c60614cf0565b613c6861255e565b6040830181905260208301826003811115613c7f57fe5b6003811115613c8a57fe5b9052506000905081602001516003811115613ca157fe5b14613cc557613cbd6009602b8360200151600381111561192457fe5b9150506112b4565b8315613d46576060810184905260408051602081018252908201518152613cec908561289b565b6080830181905260208301826003811115613d0357fe5b6003811115613d0e57fe5b9052506000905081602001516003811115613d2557fe5b14613d4157613cbd600960298360200151600381111561192457fe5b613dbf565b613d628360405180602001604052808460400151815250613778565b6060830181905260208301826003811115613d7957fe5b6003811115613d8457fe5b9052506000905081602001516003811115613d9b57fe5b14613db757613cbd6009602a8360200151600381111561192457fe5b608081018390525b60055460608201516040805163eabe7d9160e01b81523060048201526001600160a01b03898116602483015260448201939093529051600093929092169163eabe7d919160648082019260209290919082900301818787803b158015613e2457600080fd5b505af1158015613e38573d6000803e3d6000fd5b505050506040513d6020811015613e4e57600080fd5b505190508015613e6e57613e656003602883612e08565b925050506112b4565b613e76612c04565b60095414613e8a57613e65600a602c612126565b613e9a600d548360600151612d7d565b60a0840181905260208401826003811115613eb157fe5b6003811115613ebc57fe5b9052506000905082602001516003811115613ed357fe5b14613eef57613e656009602e8460200151600381111561192457fe5b6001600160a01b0386166000908152600e60205260409020546060830151613f179190612d7d565b60c0840181905260208401826003811115613f2e57fe5b6003811115613f3957fe5b9052506000905082602001516003811115613f5057fe5b14613f6c57613e656009602d8460200151600381111561192457fe5b8160800151613f796128ee565b1015613f8b57613e65600e602f612126565b613f99868360800151613bda565b60a0820151600d5560c08201516001600160a01b0387166000818152600e6020908152604091829020939093556060850151815190815290513093600080516020614f3a833981519152928290030190a36080820151606080840151604080516001600160a01b038b168152602081019490945283810191909152517fe5b754fb1abb7f01b499791d0b820ae3b6af3424ac1c59768edb53f4ec31a9299281900390910190a160055460808301516060840151604080516351dff98960e01b81523060048201526001600160a01b038b81166024830152604482019490945260648101929092525191909216916351dff98991608480830192600092919082900301818387803b1580156140ac57600080fd5b505af11580156140c0573d6000803e3d6000fd5b50600092506140cd915050565b9695505050505050565b600080836140ea57506000905080612557565b838302838582816140f757fe5b041461410b57506002915060009050612557565b600092509050612557565b6000808261412a5750600190506000612557565b600083858161413557fe5b04915091509250929050565b60055460408051632fe3f38f60e11b81523060048201526001600160a01b0384811660248301528781166044830152868116606483015260848201869052915160009384938493911691635fc7e71e9160a48082019260209290919082900301818787803b1580156141b257600080fd5b505af11580156141c6573d6000803e3d6000fd5b505050506040513d60208110156141dc57600080fd5b505190508015614200576141f36003601283612e08565b92506000915061462a9050565b614208612c04565b6009541461421c576141f3600a6016612126565b614224612c04565b846001600160a01b0316636c540baf6040518163ffffffff1660e01b815260040160206040518083038186803b15801561425d57600080fd5b505afa158015614271573d6000803e3d6000fd5b505050506040513d602081101561428757600080fd5b50511461429a576141f3600a6011612126565b866001600160a01b0316866001600160a01b031614156142c0576141f360066017612126565b846142d1576141f360076015612126565b6000198514156142e7576141f360076014612126565b6000806142f589898961388c565b909250905081156143255761431682601081111561430f57fe5b6018612126565b94506000935061462a92505050565b6005546040805163c488847b60e01b81523060048201526001600160a01b038981166024830152604482018590528251600094859492169263c488847b926064808301939192829003018186803b15801561437f57600080fd5b505afa158015614393573d6000803e3d6000fd5b505050506040513d60408110156143a957600080fd5b508051602090910151909250905081156143f45760405162461bcd60e51b8152600401808060200182810382526033815260200180614f8b6033913960400191505060405180910390fd5b80886001600160a01b03166370a082318c6040518263ffffffff1660e01b815260040180826001600160a01b03166001600160a01b0316815260200191505060206040518083038186803b15801561444b57600080fd5b505afa15801561445f573d6000803e3d6000fd5b505050506040513d602081101561447557600080fd5b505110156144ca576040805162461bcd60e51b815260206004820152601860248201527f4c49515549444154455f5345495a455f544f4f5f4d5543480000000000000000604482015290519081900360640190fd5b60006001600160a01b0389163014156144f0576144e9308d8d85613022565b905061457a565b6040805163b2a02ff160e01b81526001600160a01b038e811660048301528d81166024830152604482018590529151918b169163b2a02ff1916064808201926020929091908290030181600087803b15801561454b57600080fd5b505af115801561455f573d6000803e3d6000fd5b505050506040513d602081101561457557600080fd5b505190505b80156145c4576040805162461bcd60e51b81526020600482015260146024820152731d1bdad95b881cd95a5e9d5c994819985a5b195960621b604482015290519081900360640190fd5b604080516001600160a01b03808f168252808e1660208301528183018790528b1660608201526080810184905290517f298637f684da70674f26509b10f07ec2fbc77a335ab1e7d6215a4b2484d8bb529181900360a00190a16000975092955050505050505b94509492505050565b6000670de0b6b3a764000061464c848460000151614ac5565b8161465357fe5b049392505050565b60006112b48383604051806040016040528060158152602001747375627472616374696f6e20756e646572666c6f7760581b815250614b07565b600061469f614c5f565b6146a98484614b61565b90506128938161387d565b60006112b48383604051806040016040528060118152602001706164646974696f6e206f766572666c6f7760781b815250614b8b565b6005546040805163368f515360e21b81523060048201526001600160a01b0385811660248301526044820185905291516000938493169163da3d454c91606480830192602092919082900301818787803b15801561474757600080fd5b505af115801561475b573d6000803e3d6000fd5b505050506040513d602081101561477157600080fd5b505190508015614790576147886003600e83612e08565b915050610ea2565b614798612c04565b600954146147ab57614788600a80612126565b826147b46128ee565b10156147c657614788600e6009612126565b6147ce614dc1565b6147d785612b50565b60208301819052828260038111156147eb57fe5b60038111156147f657fe5b905250600090508151600381111561480a57fe5b1461482f57614826600960078360000151600381111561192457fe5b92505050610ea2565b61483d816020015185612e6e565b604083018190528282600381111561485157fe5b600381111561485c57fe5b905250600090508151600381111561487057fe5b1461488c576148266009600c8360000151600381111561192457fe5b614898600b5485612e6e565b60608301819052828260038111156148ac57fe5b60038111156148b757fe5b90525060009050815160038111156148cb57fe5b146148e7576148266009600b8360000151600381111561192457fe5b6148f18585613bda565b604080820180516001600160a01b03881660008181526010602090815290859020928355600a54600190930192909255606080860151600b81905593518551928352928201899052818501929092529081019190915290517f13ed6866d4e1ee6da46f845c46d7e54120883d75c5ea9a2dacc1c4ca8984ab809181900360800190a1600095945050505050565b60008060008061498c612c04565b600954146149ab576149a0600a604f612126565b93509150612bff9050565b6149b533866136dc565b905080600c54019150600c54821015614a15576040805162461bcd60e51b815260206004820181905260248201527f61646420726573657276657320756e6578706563746564206f766572666c6f77604482015290519081900360640190fd5b600c829055604080513381526020810183905280820184905290517fa91e67c5ea634cd43a12c5a482724b03de01e85ca68702a53d0c2f45cb7c1dc59181900360600190a160009350915050915091565b6000614a70614c5f565b600080614a85670de0b6b3a7640000876140d7565b90925090506000826003811115614a9857fe5b14614ab757506040805160208101909152600081529092509050612557565b6128e18186600001516137cd565b60006112b483836040518060400160405280601781526020017f6d756c7469706c69636174696f6e206f766572666c6f77000000000000000000815250614be9565b60008184841115614b595760405162461bcd60e51b8152602060048201818152835160248401528351909283926044909101919085019080838360008315610d6b578181015183820152602001610d53565b505050900390565b614b69614c5f565b6040518060200160405280614b82856000015185614ac5565b90529392505050565b60008383018285821015614be05760405162461bcd60e51b8152602060048201818152835160248401528351909283926044909101919085019080838360008315610d6b578181015183820152602001610d53565b50949350505050565b6000831580614bf6575082155b15614c03575060006112b4565b83830283858281614c1057fe5b04148390614be05760405162461bcd60e51b8152602060048201818152835160248401528351909283926044909101919085019080838360008315610d6b578181015183820152602001610d53565b6040518060200160405280600081525090565b828054600181600116156101000203166002900490600052602060002090601f016020900481019282601f10614cb357805160ff1916838001178555614ce0565b82800160010185558215614ce0579182015b82811115614ce0578251825591602001919060010190614cc5565b50614cec929150614dea565b5090565b6040805160e0810190915280600081526020016000815260200160008152602001600081526020016000815260200160008152602001600081525090565b604080516101208101909152806000815260200160008152602001600081526020016000815260200160008152602001600081526020016000815260200160008152602001600081525090565b6040805161010081019091528060008152602001600081526020016000815260200160008152602001600081526020016000815260200160008152602001600081525090565b604080516080810190915280600081526020016000815260200160008152602001600081525090565b61101291905b80821115614cec5760008155600101614df056fe6f6e6c792061646d696e206d617920696e697469616c697a6520746865206d61726b65746d61726b6574206d6179206f6e6c7920626520696e697469616c697a6564206f6e6365696e697469616c2065786368616e67652072617465206d7573742062652067726561746572207468616e207a65726f2e73657474696e6720696e7465726573742072617465206d6f64656c206661696c65644d494e545f4e45575f4143434f554e545f42414c414e43455f43414c43554c4154494f4e5f4641494c4544626f72726f7742616c616e636553746f7265643a20626f72726f7742616c616e636553746f726564496e7465726e616c206661696c656452455041595f424f52524f575f4e45575f4143434f554e545f424f52524f575f42414c414e43455f43414c43554c4154494f4e5f4641494c4544ddf252ad1be2c89b69c2b068fc378daa952ba7f163c4a11628f55a4df523b3ef52455041595f424f52524f575f4e45575f544f54414c5f42414c414e43455f43414c43554c4154494f4e5f4641494c45444c49515549444154455f434f4d5054524f4c4c45525f43414c43554c4154455f414d4f554e545f5345495a455f4641494c454465786368616e67655261746553746f7265643a2065786368616e67655261746553746f726564496e7465726e616c206661696c65644d494e545f4e45575f544f54414c5f535550504c595f43414c43554c4154494f4e5f4641494c45446f6e65206f662072656465656d546f6b656e73496e206f722072656465656d416d6f756e74496e206d757374206265207a65726f72656475636520726573657276657320756e657870656374656420756e646572666c6f77a265627a7a72315820e104ed07f95da1043e61d9be227007b234e6a5eec7e9f3992efd976a34a06bda64736f6c634300051000326f6e6c792061646d696e206d617920696e697469616c697a6520746865206d61726b65746d61726b6574206d6179206f6e6c7920626520696e697469616c697a6564206f6e6365696e697469616c2065786368616e67652072617465206d7573742062652067726561746572207468616e207a65726f2e73657474696e6720696e7465726573742072617465206d6f64656c206661696c6564",
  "devdoc": {
    "author": "Compound",
    "methods": {
      "_acceptAdmin()": {
        "details": "Admin function for pending admin to accept role and update admin",
        "return": "uint 0=success, otherwise a failure (see ErrorReporter.sol for details)"
      },
      "_addReserves()": {
        "return": "uint 0=success, otherwise a failure (see ErrorReporter.sol for details)"
      },
      "_reduceReserves(uint256)": {
        "params": {
          "reduceAmount": "Amount of reduction to reserves"
        },
        "return": "uint 0=success, otherwise a failure (see ErrorReporter.sol for details)"
      },
      "_setComptroller(address)": {
        "details": "Admin function to set a new comptroller",
        "return": "uint 0=success, otherwise a failure (see ErrorReporter.sol for details)"
      },
      "_setInterestRateModel(address)": {
        "details": "Admin function to accrue interest and update the interest rate model",
        "params": {
          "newInterestRateModel": "the new interest rate model to use"
        },
        "return": "uint 0=success, otherwise a failure (see ErrorReporter.sol for details)"
      },
      "_setPendingAdmin(address)": {
        "details": "Admin function to begin change of admin. The newPendingAdmin must call `_acceptAdmin` to finalize the transfer.",
        "params": {
          "newPendingAdmin": "New pending admin."
        },
        "return": "uint 0=success, otherwise a failure (see ErrorReporter.sol for details)"
      },
      "_setReserveFactor(uint256)": {
        "details": "Admin function to accrue interest and set a new reserve factor",
        "return": "uint 0=success, otherwise a failure (see ErrorReporter.sol for details)"
      },
      "accrueInterest()": {
        "details": "This calculates interest accrued from the last checkpointed block  up to the current block and writes new checkpoint to storage."
      },
      "allowance(address,address)": {
        "params": {
          "owner": "The address of the account which owns the tokens to be spent",
          "spender": "The address of the account which may transfer tokens"
        },
        "return": "The number of tokens allowed to be spent (-1 means infinite)"
      },
      "approve(address,uint256)": {
        "details": "This will overwrite the approval amount for `spender` and is subject to issues noted [here](https://eips.ethereum.org/EIPS/eip-20#approve)",
        "params": {
          "amount": "The number of tokens that are approved (-1 means infinite)",
          "spender": "The address of the account which may transfer tokens"
        },
        "return": "Whether or not the approval succeeded"
      },
      "balanceOf(address)": {
        "params": {
          "owner": "The address of the account to query"
        },
        "return": "The number of tokens owned by `owner`"
      },
      "balanceOfUnderlying(address)": {
        "details": "This also accrues interest in a transaction",
        "params": {
          "owner": "The address of the account to query"
        },
        "return": "The amount of underlying owned by `owner`"
      },
      "borrow(uint256)": {
        "params": {
          "borrowAmount": "The amount of the underlying asset to borrow"
        },
        "return": "uint 0=success, otherwise a failure (see ErrorReporter.sol for details)"
      },
      "borrowBalanceCurrent(address)": {
        "params": {
          "account": "The address whose balance should be calculated after updating borrowIndex"
        },
        "return": "The calculated balance"
      },
      "borrowBalanceStored(address)": {
        "params": {
          "account": "The address whose balance should be calculated"
        },
        "return": "The calculated balance"
      },
      "borrowRatePerBlock()": {
        "return": "The borrow interest rate per block, scaled by 1e18"
      },
      "constructor": {
        "params": {
          "admin_": "Address of the administrator of this token",
          "comptroller_": "The address of the Comptroller",
          "decimals_": "ERC-20 decimal precision of this token",
          "initialExchangeRateMantissa_": "The initial exchange rate, scaled by 1e18",
          "interestRateModel_": "The address of the interest rate model",
          "name_": "ERC-20 name of this token",
          "symbol_": "ERC-20 symbol of this token"
        }
      },
      "exchangeRateCurrent()": {
        "return": "Calculated exchange rate scaled by 1e18"
      },
      "exchangeRateStored()": {
        "details": "This function does not accrue interest before calculating the exchange rate",
        "return": "Calculated exchange rate scaled by 1e18"
      },
      "getAccountSnapshot(address)": {
        "details": "This is used by comptroller to more efficiently perform liquidity checks.",
        "params": {
          "account": "Address of the account to snapshot"
        },
        "return": "(possible error, token balance, borrow balance, exchange rate mantissa)"
      },
      "getCash()": {
        "return": "The quantity of underlying asset owned by this contract"
      },
      "initialize(address,address,uint256,string,string,uint8)": {
        "params": {
          "comptroller_": "The address of the Comptroller",
          "decimals_": "EIP-20 decimal precision of this token",
          "initialExchangeRateMantissa_": "The initial exchange rate, scaled by 1e18",
          "interestRateModel_": "The address of the interest rate model",
          "name_": "EIP-20 name of this token",
          "symbol_": "EIP-20 symbol of this token"
        }
      },
      "liquidateBorrow(address,address)": {
        "details": "Reverts upon any failure",
        "params": {
          "borrower": "The borrower of this cToken to be liquidated",
          "cTokenCollateral": "The market in which to seize collateral from the borrower"
        }
      },
      "mint()": {
        "details": "Reverts upon any failure"
      },
      "redeem(uint256)": {
        "details": "Accrues interest whether or not the operation succeeds, unless reverted",
        "params": {
          "redeemTokens": "The number of cTokens to redeem into underlying"
        },
        "return": "uint 0=success, otherwise a failure (see ErrorReporter.sol for details)"
      },
      "redeemUnderlying(uint256)": {
        "details": "Accrues interest whether or not the operation succeeds, unless reverted",
        "params": {
          "redeemAmount": "The amount of underlying to redeem"
        },
        "return": "uint 0=success, otherwise a failure (see ErrorReporter.sol for details)"
      },
      "repayBorrow()": {
        "details": "Reverts upon any failure"
      },
      "repayBorrowBehalf(address)": {
        "details": "Reverts upon any failure",
        "params": {
          "borrower": "the account with the debt being payed off"
        }
      },
      "seize(address,address,uint256)": {
        "details": "Will fail unless called by another cToken during the process of liquidation. Its absolutely critical to use msg.sender as the borrowed cToken and not a parameter.",
        "params": {
          "borrower": "The account having collateral seized",
          "liquidator": "The account receiving seized collateral",
          "seizeTokens": "The number of cTokens to seize"
        },
        "return": "uint 0=success, otherwise a failure (see ErrorReporter.sol for details)"
      },
      "supplyRatePerBlock()": {
        "return": "The supply interest rate per block, scaled by 1e18"
      },
      "totalBorrowsCurrent()": {
        "return": "The total borrows with interest"
      },
      "transfer(address,uint256)": {
        "params": {
          "amount": "The number of tokens to transfer",
          "dst": "The address of the destination account"
        },
        "return": "Whether or not the transfer succeeded"
      },
      "transferFrom(address,address,uint256)": {
        "params": {
          "amount": "The number of tokens to transfer",
          "dst": "The address of the destination account",
          "src": "The address of the source account"
        },
        "return": "Whether or not the transfer succeeded"
      }
    },
    "title": "Compound's CEther Contract"
  },
  "userdoc": {
    "methods": {
      "_acceptAdmin()": {
        "notice": "Accepts transfer of admin rights. msg.sender must be pendingAdmin"
      },
      "_addReserves()": {
        "notice": "The sender adds to reserves."
      },
      "_reduceReserves(uint256)": {
        "notice": "Accrues interest and reduces reserves by transferring to admin"
      },
      "_setComptroller(address)": {
        "notice": "Sets a new comptroller for the market"
      },
      "_setInterestRateModel(address)": {
        "notice": "accrues interest and updates the interest rate model using _setInterestRateModelFresh"
      },
      "_setPendingAdmin(address)": {
        "notice": "Begins transfer of admin rights. The newPendingAdmin must call `_acceptAdmin` to finalize the transfer."
      },
      "_setReserveFactor(uint256)": {
        "notice": "accrues interest and sets a new reserve factor for the protocol using _setReserveFactorFresh"
      },
      "accrueInterest()": {
        "notice": "Applies accrued interest to total borrows and reserves"
      },
      "allowance(address,address)": {
        "notice": "Get the current allowance from `owner` for `spender`"
      },
      "approve(address,uint256)": {
        "notice": "Approve `spender` to transfer up to `amount` from `src`"
      },
      "balanceOf(address)": {
        "notice": "Get the token balance of the `owner`"
      },
      "balanceOfUnderlying(address)": {
        "notice": "Get the underlying balance of the `owner`"
      },
      "borrow(uint256)": {
        "notice": "Sender borrows assets from the protocol to their own address"
      },
      "borrowBalanceCurrent(address)": {
        "notice": "Accrue interest to updated borrowIndex and then calculate account's borrow balance using the updated borrowIndex"
      },
      "borrowBalanceStored(address)": {
        "notice": "Return the borrow balance of account based on stored data"
      },
      "borrowRatePerBlock()": {
        "notice": "Returns the current per-block borrow interest rate for this cToken"
      },
      "constructor": "Construct a new CEther money market",
      "exchangeRateCurrent()": {
        "notice": "Accrue interest then return the up-to-date exchange rate"
      },
      "exchangeRateStored()": {
        "notice": "Calculates the exchange rate from the underlying to the CToken"
      },
      "getAccountSnapshot(address)": {
        "notice": "Get a snapshot of the account's balances, and the cached exchange rate"
      },
      "getCash()": {
        "notice": "Get cash balance of this cToken in the underlying asset"
      },
      "initialize(address,address,uint256,string,string,uint8)": {
        "notice": "Initialize the money market"
      },
      "liquidateBorrow(address,address)": {
        "notice": "The sender liquidates the borrowers collateral. The collateral seized is transferred to the liquidator."
      },
      "mint()": {
        "notice": "Sender supplies assets into the market and receives cTokens in exchange"
      },
      "redeem(uint256)": {
        "notice": "Sender redeems cTokens in exchange for the underlying asset"
      },
      "redeemUnderlying(uint256)": {
        "notice": "Sender redeems cTokens in exchange for a specified amount of underlying asset"
      },
      "repayBorrow()": {
        "notice": "Sender repays their own borrow"
      },
      "repayBorrowBehalf(address)": {
        "notice": "Sender repays a borrow belonging to borrower"
      },
      "seize(address,address,uint256)": {
        "notice": "Transfers collateral tokens (this market) to the liquidator."
      },
      "supplyRatePerBlock()": {
        "notice": "Returns the current per-block supply interest rate for this cToken"
      },
      "totalBorrowsCurrent()": {
        "notice": "Returns the current total borrows plus accrued interest"
      },
      "transfer(address,uint256)": {
        "notice": "Transfer `amount` tokens from `msg.sender` to `dst`"
      },
      "transferFrom(address,address,uint256)": {
        "notice": "Transfer `amount` tokens from `src` to `dst`"
      }
    },
    "notice": "CToken which wraps Ether"
  },
  "storageLayout": {
    "storage": [
      {
        "astId": 6221,
        "contract": "contracts/CEther.sol:CEther",
        "label": "_notEntered",
        "offset": 0,
        "slot": "0",
        "type": "t_bool"
      },
      {
        "astId": 6223,
        "contract": "contracts/CEther.sol:CEther",
        "label": "name",
        "offset": 0,
        "slot": "1",
        "type": "t_string_storage"
      },
      {
        "astId": 6225,
        "contract": "contracts/CEther.sol:CEther",
        "label": "symbol",
        "offset": 0,
        "slot": "2",
        "type": "t_string_storage"
      },
      {
        "astId": 6227,
        "contract": "contracts/CEther.sol:CEther",
        "label": "decimals",
        "offset": 0,
        "slot": "3",
        "type": "t_uint8"
      },
      {
        "astId": 6235,
        "contract": "contracts/CEther.sol:CEther",
        "label": "admin",
        "offset": 1,
        "slot": "3",
        "type": "t_address_payable"
      },
      {
        "astId": 6237,
        "contract": "contracts/CEther.sol:CEther",
        "label": "pendingAdmin",
        "offset": 0,
        "slot": "4",
        "type": "t_address_payable"
      },
      {
        "astId": 6239,
        "contract": "contracts/CEther.sol:CEther",
        "label": "comptroller",
        "offset": 0,
        "slot": "5",
        "type": "t_contract(ComptrollerInterface)34309"
      },
      {
        "astId": 6241,
        "contract": "contracts/CEther.sol:CEther",
        "label": "interestRateModel",
        "offset": 0,
        "slot": "6",
        "type": "t_contract(InterestRateModel)38619"
      },
      {
        "astId": 6243,
        "contract": "contracts/CEther.sol:CEther",
        "label": "initialExchangeRateMantissa",
        "offset": 0,
        "slot": "7",
        "type": "t_uint256"
      },
      {
        "astId": 6245,
        "contract": "contracts/CEther.sol:CEther",
        "label": "reserveFactorMantissa",
        "offset": 0,
        "slot": "8",
        "type": "t_uint256"
      },
      {
        "astId": 6247,
        "contract": "contracts/CEther.sol:CEther",
        "label": "accrualBlockNumber",
        "offset": 0,
        "slot": "9",
        "type": "t_uint256"
      },
      {
        "astId": 6249,
        "contract": "contracts/CEther.sol:CEther",
        "label": "borrowIndex",
        "offset": 0,
        "slot": "10",
        "type": "t_uint256"
      },
      {
        "astId": 6251,
        "contract": "contracts/CEther.sol:CEther",
        "label": "totalBorrows",
        "offset": 0,
        "slot": "11",
        "type": "t_uint256"
      },
      {
        "astId": 6253,
        "contract": "contracts/CEther.sol:CEther",
        "label": "totalReserves",
        "offset": 0,
        "slot": "12",
        "type": "t_uint256"
      },
      {
        "astId": 6255,
        "contract": "contracts/CEther.sol:CEther",
        "label": "totalSupply",
        "offset": 0,
        "slot": "13",
        "type": "t_uint256"
      },
      {
        "astId": 6259,
        "contract": "contracts/CEther.sol:CEther",
        "label": "accountTokens",
        "offset": 0,
        "slot": "14",
        "type": "t_mapping(t_address,t_uint256)"
      },
      {
        "astId": 6265,
        "contract": "contracts/CEther.sol:CEther",
        "label": "transferAllowances",
        "offset": 0,
        "slot": "15",
        "type": "t_mapping(t_address,t_mapping(t_address,t_uint256))"
      },
      {
        "astId": 6274,
        "contract": "contracts/CEther.sol:CEther",
        "label": "accountBorrows",
        "offset": 0,
        "slot": "16",
        "type": "t_mapping(t_address,t_struct(BorrowSnapshot)6270_storage)"
      }
    ],
    "types": {
      "t_address": {
        "encoding": "inplace",
        "label": "address",
        "numberOfBytes": "20"
      },
      "t_address_payable": {
        "encoding": "inplace",
        "label": "address payable",
        "numberOfBytes": "20"
      },
      "t_bool": {
        "encoding": "inplace",
        "label": "bool",
        "numberOfBytes": "1"
      },
      "t_contract(ComptrollerInterface)34309": {
        "encoding": "inplace",
        "label": "contract ComptrollerInterface",
        "numberOfBytes": "20"
      },
      "t_contract(InterestRateModel)38619": {
        "encoding": "inplace",
        "label": "contract InterestRateModel",
        "numberOfBytes": "20"
      },
      "t_mapping(t_address,t_mapping(t_address,t_uint256))": {
        "encoding": "mapping",
        "key": "t_address",
        "label": "mapping(address => mapping(address => uint256))",
        "numberOfBytes": "32",
        "value": "t_mapping(t_address,t_uint256)"
      },
      "t_mapping(t_address,t_struct(BorrowSnapshot)6270_storage)": {
        "encoding": "mapping",
        "key": "t_address",
        "label": "mapping(address => struct CTokenStorage.BorrowSnapshot)",
        "numberOfBytes": "32",
        "value": "t_struct(BorrowSnapshot)6270_storage"
      },
      "t_mapping(t_address,t_uint256)": {
        "encoding": "mapping",
        "key": "t_address",
        "label": "mapping(address => uint256)",
        "numberOfBytes": "32",
        "value": "t_uint256"
      },
      "t_string_storage": {
        "encoding": "bytes",
        "label": "string",
        "numberOfBytes": "32"
      },
      "t_struct(BorrowSnapshot)6270_storage": {
        "encoding": "inplace",
        "label": "struct CTokenStorage.BorrowSnapshot",
        "members": [
          {
            "astId": 6267,
            "contract": "contracts/CEther.sol:CEther",
            "label": "principal",
            "offset": 0,
            "slot": "0",
            "type": "t_uint256"
          },
          {
            "astId": 6269,
            "contract": "contracts/CEther.sol:CEther",
            "label": "interestIndex",
            "offset": 0,
            "slot": "1",
            "type": "t_uint256"
          }
        ],
        "numberOfBytes": "64"
      },
      "t_uint256": {
        "encoding": "inplace",
        "label": "uint256",
        "numberOfBytes": "32"
      },
      "t_uint8": {
        "encoding": "inplace",
        "label": "uint8",
        "numberOfBytes": "1"
      }
    }
  }
}